:100000000C944A030C949F050C9491030C94910357
:100010000C9491030C9491030C9491030C94910310
:100020000C9491030C9491030C944E270C9420286B
:100030000C94BC1D0C9491030C9491030C949103AB
:100040000C9491030C9491030C9491030C949103E0
:100050000C9491030C94241E0C9491030C94910322
:100060000C9491030C9491030C9491030C949103C0
:100070000C9491030C9491030C9491030C949103B0
:100080000C9491030C9491030C9491030C949103A0
:100090000C9491030C9491030C9491030C94910390
:1000A0000C9491030C9491030C9491033F07410726
:1000B0004C0743074507470749074B074E075007BB
:1000C00052075D075407560758075A075C075F0732
:1000D0007C147C14B614B614F514151588168816FD
:1000E00057158816071607167A1688168816821668
:1000F00014161416141614161416141614161416B0
:10010000141614161416141614161416141614169F
:10011000261634163B1642164C161B171B172D17A6
:100120002D1724172D172D172D171B171B172917E0
:100130002D172D1729178D28B428A629B428A629EC
:1001400000292329A6297929882907634236B79BE4
:10015000D8A71A39685618AEBAAB558C1D3CB7CC27
:100160005763BD6DEDFD753EF6177231BF0000009F
:10017000803F05A84CCDB2D44EB93836A9020C50F8
:10018000B9918688083CA6AAAA2ABE000000803F32
:10019000012F022F01300230015002500001E10115
:1001A0002F022F02E101E10130023002E101500291
:1001B000500001E10126022602E101E101270227A8
:1001C00002E1015002500001E10134023402E10178
:1001D000E10134023402E1015002500001270227FC
:1001E00001270227002B0014001A00080015001731
:1001F00000025804001600070009000A0004531DFD
:10020000001B00060019000500E000E300E2000307
:10021000512A00E1002900130012000C0018001CF4
:1002200000340033000F000E000D000B004C0038AE
:100230000037003600100011004F005200510050EE
:100240000028002C4135001E001F00200021002244
:100250000045003A003B003C003D003E000100012B
:100260000001000100010001000100010001000186
:1002700000010001004D0027002600250024002376
:1002800000440043004200410040003F00A900AA92
:1002900000AB00AC00A800AE0001004B004E000116
:1002A0000001000100010055002400250026005631
:1002B0000001005400210022003F0057000100010E
:1002C000001E001F00200001000100010000302777
:1002D00000370028000100010001000100010001B9
:1002E00000010001004F00520051005000010001C8
:1002F00000010001000100010001000100010001F6
:1003000000010001000100010001000100010001E5
:1003100000010001000100010001000100010001D5
:1003200000010001000100010001000100010001C5
:100330000001000100010030022F022E022D0201F7
:1003400000310030002F002E002D000100010004BC
:1003500030033002300130010001000100010001D2
:1003600000010001000100010005300630073001E6
:100370000001000100083001000100093001000106
:100380000001000100010001000100010001000165
:100390000001000100005C010001000100010001FA
:1003A0000001000100010001000100010001000145
:1003B0000001000100010001000100010001000135
:1003C00000010001006801F000B40078005A007FCD
:1003D0003F1F643214643214783C1E1E140A050058
:1003E00000000000010101010101010101020202FE
:1003F00002020202020203030303030303030404D1
:100400000404040405050505050606060606070797
:100410000707080808080909090A0A0A0A0B0B0B4A
:100420000C0C0C0D0D0D0E0E0F0F0F1010111111E5
:100430001212131314141515161617171818191964
:100440001A1A1B1C1C1D1D1E1F1F202021222223C7
:1004500024252526272728292A2B2B2C2D2E2F2F04
:1004600030313233343536363738393A3B3C3D3E1D
:100470003F4041424344464748494A4B4C4D4F5008
:10048000515253555657585A5B5C5E5F60626364C5
:100490006667696A6C6D6E707173747678797B7C4F
:1004A0007E8081838486888A8B8D8F9192949698A2
:1004B0009A9B9D9FA1A3A5A7A9ABADAFB1B3B5B7BB
:1004C000B9BBBDBFC1C4C6C8CACCCFD1D3D6D8DA98
:1004D000DCDFE1E4E6E8EBEDF0F2F5F7FAFCFF1C17
:1004E000034C006500740073002000530070006C22
:1004F00000690074002000760032000000160357E7
:10050000006F006F0074007000610074006F006F76
:1005100000740000000403090409026D00040100D6
:10052000A0FA0904000001030101000921110100E2
:10053000012240000705810308000A0904010001A7
:1005400003010200092111010001224D000705826B
:100550000308000A09040200010300000009211138
:100560000100012236000705830308000A0904037D
:1005700000010300000009211101000122390007D8
:100580000584032000011201100100000008EDFEA7
:10059000603001000102000105010906A101050703
:1005A00019E029E715002501950875018102050864
:1005B00019012905950575019102950175039101B0
:1005C0000507190029F71500250195F87501810225
:1005D000C005010980A10185021601002603001A49
:1005E00081002A8300751095018100C0050C090166
:1005F000A1018503160100269C021A01002A9C0213
:10060000751095018100C005010902A1010901A130
:1006100000050919012905150025019505750181B8
:100620000295017503810105010930093115812504
:100630007F95027508810609381581257F9501751A
:10064000088106050C0A38021581257F9501750879
:100650008106C0C005010906A101050719E029E7C7
:100660001500250195087501810295017508810124
:100670000508190129059505750191029501750374
:1006800091010507190029FF150026FF0095067541
:10069000088100C011241FBECFEFDAE0DEBFCDBF5E
:1006A00004B603FE27C08091630290916402A0917A
:1006B0006502B09166028730904BA740B04BD1F4F1
:1006C0001092630210926402109265021092660208
:1006D00014BE84B7877F84BF0FB6F894A895809125
:1006E0006000886180936000109260000FBEE0E0BF
:1006F000F8E3099511E0A0E0B1E0E6E3FBE502C014
:1007000005900D92A635B107D9F722E0A6E5B1E034
:1007100001C01D92A336B207E1F70E947B240C941E
:10072000992D0C940000089508950C9494038091E1
:1007300010028360886080931002ACE1B1E041E078
:1007400050E024E02A0F8D91E82FE295EF70F0E061
:1007500031A18F70BA0102C0660F771F8A95E2F748
:10076000CB01962F9095932391A392A1892B82A3DD
:100770002A13E9CFA6E1B1E041E050E026E02A0FDC
:100780008D91E82FE295EF70F0E031A18F70BA0102
:1007900002C0660F771F8A95E2F7CB01962F9095DE
:1007A000932391A392A1892B82A32A13E9CF559A6F
:1007B000209AAFE5B1E0E6E5F1E088E08E0F119216
:1007C0001D928E13FCCF0C9438092F923F924F92BA
:1007D0005F926F927F928F929F92AF92BF92CF92D1
:1007E000DF92EF92FF920F931F93CF93DF9300D08E
:1007F00000D0CDB7DEB780910001811103C004E0C5
:1008000010E002C000E010E09801215A3E4F69015B
:100810003C832B838CE1E82E81E0F82EAA24A3945C
:10082000B12C8824839424E0922E34E0732E7E0C25
:100830006B817C81DB015C901C92F70181917F01CF
:10084000E82FE295EF70F0E021A18F70A50102C0C2
:10085000440F551F8A95E2F7CA01242B21A322A138
:10086000642E6094262122A350EA5A95F1F7A6E15E
:10087000B1E0BA83A98320E030E0A981BA813D903C
:10088000BA83A983432D42954F7050E0DA019096C8
:100890002C90AB81BC814C90432D4F70D50102C090
:1008A000AA0FBB1F4A95E2F7AD01422139F44A2D48
:1008B000022E01C0440F0A94EAF701C040E0442927
:1008C000AB81BC814C932F5F3F4F26303105A9F699
:1008D00091A1692261A292A1892B82A31196BC8366
:1008E000AB83FB018081581659F0809267010E940A
:1008F000EE1D90936901809368018BB189258BB9B6
:100900007E1096CF809167018823A9F080916801BD
:10091000909169010E94FA1D069768F0F801EA5A61
:10092000FE4F80E0D6019D916D0191938F5F8430E1
:10093000C9F71092670181E00F900F900F900F9010
:10094000DF91CF911F910F91FF90EF90DF90CF90AB
:10095000BF90AF909F908F907F906F905F904F90DF
:100960003F902F900895CF93DF93809100018111E4
:1009700003C0C0E0D0E002C0C4E0D0E00E94120694
:10098000009779F4CA5ADE4F20E030E0F901E459CB
:10099000FE4F408149932F5F3F4F24303105B1F71F
:1009A00002C081E090E0DF91CF910895CF930E9443
:1009B000E503C82F0E94B304892BC1F05D98909184
:1009C0005E019F5F90935E01963098F080910001E8
:1009D000811103C0E0E0F0E002C0E4E0F0E0EA5A98
:1009E000FE4F108211821282138203C05D9A109210
:1009F0005E010E943A098C2FCF9108950E94E50371
:100A000080910001811103C0E4E0F0E002C0E0E069
:100A1000F0E0EA5AFE4F80E090E02191DC01A45919
:100A2000BE4F2C93019684309105B9F70895E82FB5
:100A3000F0E0EA5AFE4F808108950895E8EDF0E075
:100A40008081806180838AE18A95F1F700C080917E
:100A5000D900817008950E941E05809300010E94B4
:100A60001E05882319F00E94920504C00E94E51D0E
:100A70000E949605789408950E9497030E94FE04B0
:100A8000FDCF0E942B050E941E05811102C00E940D
:100A90003C050895509A08955098589A0895589A88
:100AA00008950E944A05589880E88A95F1F70C94B9
:100AB0004F050E944C05489BFECF80E88A95F1F7D0
:100AC00008950E944C0598E080E029B12170880FBC
:100AD000822B20E82A95F1F725E02A95F1F700000E
:100AE000915099F708950F931F93CF93082F0E9469
:100AF0004A05C8E010E0C15088F0C8010C2E02C0C1
:100B0000959587950A94E2F780FF03C00E944F05F0
:100B100001C0589880E88A95F1F7EDCFCF911F91E9
:100B20000F9108950E944A050C944F050E944C05B0
:100B3000E89AE9E6F0E080818C7F808308951F9237
:100B40000F920FB60F921124CF92DF92EF92FF9285
:100B50001F932F933F934F935F936F937F938F9345
:100B60009F93AF93BF93EF93FF93CF93DF931F9226
:100B7000CDB7DEB70E945105C12CD12C10E0C601C3
:100B800084599E4F7C01FC0180810E9473050E9464
:100B90005105F7018081180FFFEFCF1ADF0A84E0BB
:100BA000C816D10461F7812F0E9473050E94510578
:100BB00090E89A95F1F7E0E4EA95F1F70E94610573
:100BC00080936B010E94510510916B010E94610599
:100BD00089830E9451050E944C058981181721F0D4
:100BE00080916A01816003C080916A018E7F809349
:100BF0006A010F90DF91CF91FF91EF91BF91AF917B
:100C00009F918F917F916F915F914F913F912F9124
:100C10001F91FF90EF90DF90CF900F900FBE0F903D
:100C20001F901895CF92DF92EF92FF921F93CF9370
:100C3000DF931F92CDB7DEB7F8940E944A0558980B
:100C400025E02A95F1F700000E944C050E944F050F
:100C500030E83A95F1F7489934C00E945905C12C03
:100C6000D12C10E00E946105F601E459FE4F7F018E
:100C700080830E945905F7018081180FFFEFCF1A7A
:100C8000DF0A24E0C216D10469F70E946105898356
:100C90000E9459058981181314C080916B010E942C
:100CA00073050E94590580916B010E9473050E9493
:100CB00059050E944A050E944F05789480E090E013
:100CC00003C0789481E090E00F90DF91CF911F9165
:100CD000FF90EF90DF90CF9008950C9493036A30CB
:100CE00048F4E62FF0E0EE0FFF1FEC5DFE4F808131
:100CF0009181089580E090E00895CF93DF93EC0117
:100D00000E94EC1CBE0180E090E0DF91CF910C943A
:100D1000D01ACF93FB018C3D2CE59207E9F050F4FB
:100D20008A3D2CE5920781F08B3D9C4519F5C281E7
:100D300081E017C08D3D2CE5920789F08E3D9C45E2
:100D4000C9F4C28183E00DC0C281CC23A1F081E04F
:100D500090E00E947D0609C0C28182E002C0C2818B
:100D600084E0CC2321F00E942F1BC0E004C00E942D
:100D7000501B01C0C1E08C2FCF91089581E00895F0
:100D80000C9489060E9409172FEF84E39CE0215000
:100D900080409040E1F700C0000087E797E790931C
:100DA0000108809300080C944A1E0F931F93CF9361
:100DB000DF938C01FC01C081D181CE010E94CD1B4B
:100DC000BE010E944209EC01B8010E94C0068823BE
:100DD00009F448C2B801CE010E949E0B882309F491
:100DE00041C2CA3CFCE5DF0741F4F8018281882357
:100DF00009F438C20E94050E35C2CB3C8CE5D807F9
:100E000008F003C1C33C9CE5D90741F4F801828195
:100E1000882309F427C20E94C80E24C2C43CECE512
:100E2000DE0708F0ABC0C531FCE5DF0708F057C0AE
:100E3000C2308CE5D80708F47AC0F8018281882393
:100E400009F46EC00E94D91C811102C00E94B81C16
:100E50000E94F11C90E09093550280935402FE0191
:100E6000E350FC45E231F10530F4EA5AFF4F80913E
:100E700054020C944B2D80915402816027C08260F3
:100E800025C0846023C0806121C080621FC080644F
:100E90001DC080681BC08460886018C08E7F16C02B
:100EA0008D7F14C08B7F12C08F7E10C08F7D0EC0CF
:100EB0008F7B0CC08F770AC08B7F877F07C087FB33
:100EC000222720F991E0922790FB87F98093540222
:100ED000809154020E94F51C0E940917C3C1C531BC
:100EE000DC45C9F40E947F1C282FF80182814091C3
:100EF0000301509104018823B1F12A7A91E009F4A9
:100F000090E09093700191112CC069E2CA010E9497
:100F1000561D0E944C1C81E08093750180937601E0
:100F2000C801DF91CF911F910F910C94BE06C1159E
:100F30009CE5D90741F4F8018281882309F492C124
:100F40000E94C2068FC1C130DC4529F7F8018281B9
:100F5000882309F487C18091100281608093100278
:100F600081C165E3D3CF80917001811102C069E234
:100F700001C065E3CA010E94611DCBCFC63C8CE570
:100F8000D80741F4F8018281882309F46BC10E94DB
:100F9000990D68C1C73C9CE5D907E0F4C43CECE579
:100FA000DE0741F4F8018281882309F45BC10E94C5
:100FB000B50E58C1C53CDC4509F0ADCFF8018281C2
:100FC000882309F44FC10E947F1C827281F30E9422
:100FD000BF0E48C1F8018281C83CFCE5DF0731F44F
:100FE000882309F43FC10E94D00D3CC1C93CDC45B7
:100FF00030F4882309F436C10E94B10D33C188232F
:1010000009F430C10E94EB0D2DC1C13DECE5DE07B6
:10101000C1F4F8018281882309F424C10E947E0C66
:10102000653171058105910540F00E947E0C6731A4
:1010300071058105910508F4BACF85E10E943A0E49
:1010400011C1C23DFCE5DF0708F07AC0CD3C8CE55C
:10105000D807B1F4F8018281882309F403C10E9402
:101060007E0C623071058105910540F00E947E0C76
:10107000653071058105910508F499CF82E0DECFD6
:10108000CE3C9CE5D907B8F4CB3CECE5DE0741F457
:10109000F8018281882309F4E5C00E94200EE2C095
:1010A000CC3CDC4509F037CFF8018281882309F474
:1010B000D9C081E0C3CFF8018281CF3CFCE5DF07D6
:1010C000A1F4882309F4CEC00E947E0C693071051A
:1010D0008105910540F00E947E0C6E3071058105FE
:1010E000910508F464CF89E0A9CFC03DDC45A0F4A8
:1010F000882309F4B7C00E947E0C66307105810513
:10110000910540F00E947E0C6830710581059105C3
:1011100008F44DCF86E092CF882309F4A3C00E9443
:101120007E0C6F3071058105910540F00E947E0CA8
:10113000643171058105910508F439CF8FE07ECFC8
:10114000C43DECE5DE0719F5F8018281882351F0F2
:10115000109275010E94EE1D9093720180937101AF
:1011600082E034C08091750181110FC080917101BE
:10117000909172010E94FA1D883C910530F486E23C
:101180000E94C11286E20E94D01382E027C0C53DB2
:10119000FCE5DF0730F1C83DECE5DE0709F444C0AB
:1011A000C93DFCE5DF0709F445C0C53DDC4509F054
:1011B000B2CEF8018281882361F0109276010E94FC
:1011C000EE1D909374018093730180E20E942F14AE
:1011D00049C0809176018823A9F180E20E943614EB
:1011E00041C0C23D8CE5D80731F4F80182818823E3
:1011F000C9F188E123CFC33DDC4509F08CCEF8016D
:101200008281882379F10E947E0C69317105810504
:10121000910540F00E947E0C6232710581059105B6
:1012200008F4C5CE89E10ACFF80182818823D1F084
:1012300080E005C0F80182818823A1F082E00E944D
:10124000112510C080917301909174010E94FA1DC4
:10125000883C910510F687E20E94C11287E20E9445
:10126000D013BBCF80E0DF91CF911F910F910895F4
:101270000C946D060C94950308950C943C090C9401
:101280003D09089596E0799FF001112490E3899F2C
:10129000E00DF11D1124E60FF11DEE0FFF1FEB51C4
:1012A000FE4F859194910895880F991FFC01EB538F
:1012B000FC4F859194910895CF93DF930E9442094A
:1012C0000E94F40AEC01811520E49207B0F5811523
:1012D00040E3940708F0E1C0803E9105D0F4803CE3
:1012E000910508F06FC0883A910570F4853A910530
:1012F00008F06BC08130910509F472C108F429C16E
:10130000049708F06DC125C18D3B910508F468C0B4
:1013100020C18F3F910509F048F4803F910508F006
:10132000B6C0883E910508F45BC113C1811550E237
:10133000950708F455C19F70ACC0811564E5960708
:10134000D8F4C11583E5D80708F0E2C0C11521E53E
:10135000D20740F4C11540E5D40708F0A7C0DF70FC
:10136000D06A3EC1C11552E5D50708F0BBC0DC2FDD
:10137000CC27C16FD06A34C1811566E5960750F459
:10138000C11585E5D80708F0D9C0DC2FCC27C46F7C
:10139000D06A26C1811528E5920708F4DAC08115C4
:1013A00049E5940708F4D0C090568115904208F0A2
:1013B000D0C08D2F8F710E94710BDD27D0628F718D
:1013C000D82B0EC1805C910964C0853A910509F45F
:1013D000C3C0863A910509F0C2C0C2E8D0E400C19A
:1013E000883A910509F4BEC0893A910509F4BDC057
:1013F0008A3A910509F4BCC08B3A910509F4BBC047
:101400008C3A910509F4BAC08B3B910509F4B9C037
:101410008C3B910509F4B8C08D3A910509F4B7C029
:10142000803B910509F4B6C08E3A910509F4B5C028
:101430008F3A910509F4B4C0813B910509F4B3C01A
:10144000823B910509F4B2C0833B910509F4B1C018
:10145000843B910509F4B0C0853B910509F4AFC008
:10146000863B910509F4AEC0873B910509F4ADC0F8
:10147000883B910509F4ACC0893B910509F4ABC0E8
:101480008A3B910509F4AAC0C0E0D4E4A9C0D065A4
:10149000A7C00E945409EC01A3C09927D3FF03C041
:1014A000EC01D86C9DC0EC01D06C9AC02C2F23703D
:1014B00081E090E002C0880F991F2A95E2F79C68AE
:1014C0009E0144E0369527954A95E1F72370922BCB
:1014D000CF70C695C69560E2C69FE0011124C82B67
:1014E000D92B7EC02C2F2695269580E2289F90012F
:1014F0001124C370DD2781E090E0AC0102C0440FED
:10150000551FCA95E2F7EA01C22BD32BDC6868C0ED
:101510002C2F2695269580E2289F90011124C370D8
:10152000DD2781E090E0AC0102C0440F551FCA9551
:10153000E2F7EA01C22BD32BDA6852C0CF71DD2764
:10154000DC2FCC27D0624CC0DC2FCC27C06FD06AF8
:1015500047C0C0E0D0E044C0C1E8D0E441C0C3E827
:10156000D0E43EC0C2EED4E43BC0C9EED4E438C0FF
:10157000CAEED4E435C0C5EBD4E432C0C6EBD4E443
:101580002FC0C3EBD4E42CC0C4EBD4E429C0C7EB18
:10159000D4E426C0CCECD4E423C0CDECD4E420C009
:1015A000C3E8D5E41DC0CAE8D5E41AC0C2E9D5E451
:1015B00017C0C4E9D5E414C0C1E2D6E411C0C3E247
:1015C000D6E40EC0C4E2D6E40BC0C5E2D6E408C03F
:1015D000C6E2D6E405C0C7E2D6E402C0CAE2D6E459
:1015E000CE01DF91CF9108958238910549F1B0F491
:1015F0008133910509F458C048F48932910509F402
:101600004EC08A32910509F454C00895853391057E
:1016100009F440C08933910599F00895833E9105FE
:1016200029F138F4803E910591F0823E9105A1F0B8
:101630000895863E9105F9F0873E910531F10895B0
:101640002091540220FD3AC021FD38C008958091B8
:10165000540280FD35C032C08091540282FF32C0F6
:101660008091540284FD30C083EE39C080915402D1
:1016700082FD28C0F5CF8091540283FF27C080915E
:10168000540284FD21C087EE2AC08091540283FD5C
:101690001DC0F5CF8091540285FD1AC01BC08091FA
:1016A000540285FD17C014C08091540286FD14C0F9
:1016B00015C08091540286FD11C00EC080EE0FC08F
:1016C00089E30DC082EE0BC080E009C086EE07C042
:1016D00089E205C085E303C08AE201C081E390E0AE
:1016E0000895CF93C82F0E94F11C90E0909355026B
:1016F0008093540282FF0DC09C2F9871983019F48A
:10170000C77FC46006C09C2F9471943011F4CB7FC6
:10171000C86083FF0DC09C2F9871983119F4C77E63
:10172000C46106C09C2F9471943111F4CB7EC861C2
:1017300084FDC77E8C2FCF91089508950F931F933A
:10174000CF93FB012281211102C0C1E041C08C0175
:10175000C0918401C11125C086319C45B1F70E941A
:101760009D0B81E0809384010E94EE1D9093830184
:101770008093820110927701109279011092780182
:1017800010927B0110927A0110927D0110927C01DF
:1017900010927F0110927E011092810110928001BF
:1017A00017C080918201909183010E94FA1D883CAC
:1017B000910558F690917701E92FF0E0EE0FFF1FA9
:1017C000E858FE4F118300839F5F90937701C0E03C
:1017D0008C2FCF911F910F910895EF92FF920F934D
:1017E0001F93CF93DF93E901662309F44BC0242FA5
:1017F00030E0EFEFF0E0E61BF109B901E69F900160
:10180000E79F300DF69F300D1124232F8B01031B12
:1018100011095CE3E52EF12CB7010E94232DFB0199
:10182000BC01069FC001079F900D169F900D1124CB
:10183000B7010E94232DE230F105B1F040F430975A
:1018400079F0319711F5832F242F461B21C0E43006
:10185000F105A1F068F03597C1F4842F861B18C0FC
:10186000832F262F230F14C0862F830FE42F03C04E
:10187000E42FE61B842F432F2E2F0AC0842F462FE0
:10188000430F06C0842F242F03C080E020E040E0F7
:10189000E42FF0E0E152FC4F4491E22FF0E0E152FE
:1018A000FC4F9491E82FF0E0E152FC4FE491498322
:1018B0009883EA83DF91CF911F910F91FF90EF9072
:1018C000089588E090E00C94592DAB01BC0188E0AC
:1018D00090E00C94772DE0E4F2E083E080831092B6
:1018E00041028FEF828383836091400270914102B5
:1018F00080914202909143020C94650C60914002E9
:1019000060FF06C066956F7370E080E090E0089518
:1019100060E070E0CB0108958091400280FD0CC032
:10192000109249021092480210924A0210924C0200
:1019300010924B0210924D0262E070E088E492E057
:101940000C948911E8E4F2E081836083428384830C
:10195000638345830C948C0CEF92FF920F931F933B
:10196000CF93DF9300D01F92CDB7DEB70091400236
:1019700010914102209142023091430200934402AF
:101980001093450220934602309347022091400273
:1019900020FF21C0042FF62EE92E182F9E012F5F65
:1019A0003F4F0E94ED0B8091440210FB87F980931A
:1019B00044021695809145028078182BE0FA17F9B9
:1019C00010934502F0924602009347024B816981D1
:1019D0008A810E94A20C0F900F900F90DF91CF91FF
:1019E0001F910F91FF90EF900895AF92BF92CF9209
:1019F000DF92EF92FF920F931F93CF93DF93EC014F
:101A0000062F142F8091400280FF88C0982F9E7768
:101A1000923021F4CE010E94AC0C58C0E82FE6951C
:101A2000EF739EE39E0F9F73943018F4109143025E
:101A30004DC09AE39E0F9F73993070F4881F8827DA
:101A4000881F90914102292F220FC22FC82B97FB8C
:101A5000992790F9D92F3AC087E28E0F8F738A3079
:101A6000A8F5F0E07997E0FD02C021E001C02FEF7A
:101A7000EE7FEB53FC4F85919491AC0156954795C1
:101A800024036001259FD00C112498E6A92EBB24C5
:101A9000B3947E0188E9E81A8EEFF80AC701B50110
:101AA0000E94232D28E432E0412F602F0E94ED0B8D
:101AB000C7018C0D9D1DB5010E94232D2BE432E042
:101AC000412F602F0E94ED0B0E948C0C80914002F0
:101AD0009C2FC0FB87F9809340029695809141022C
:101AE0008078892BD0FB87F98093410200934202D2
:101AF0001093430260914002709141028091420232
:101B000090914302DF91CF911F910F91FF90EF9041
:101B1000DF90CF90BF90AF900C94650CDF91CF9188
:101B20001F910F91FF90EF90DF90CF90BF90AF90FB
:101B30000895E0E4F2E02081221F2227221F309145
:101B40004102432F440F842F822B37FB992790F9B2
:101B5000089668E671E00E94372D438162810C94FB
:101B6000F50C20914002221F2227221F30914102B2
:101B7000432F440F842F822B37FB992790F988300D
:101B800091051CF4805A9E4F01C0089768E671E0E9
:101B90000E94372D40914302609142020C94F50C53
:101BA00060914202862F90E0883F910514F4685FAF
:101BB00001C06FEF80914002881F8827881F909195
:101BC0004102292F220F97FB992790F94091430258
:101BD000822B0C94F50C60914202862F90E00897BE
:101BE00014F0685001C060E080914002881F88278F
:101BF000881F90914102292F220F97FB992790F976
:101C000040914302822B0C94F50C40914302842FA7
:101C100090E0883F910514F4485F01C04FEF809138
:101C20004002881F8827881F90914102292F220F88
:101C300097FB992790F960914202822B0C94F50C46
:101C400040914302842F90E0089714F0485001C05F
:101C500040E080914002881F8827881F90914102B0
:101C6000292F220F97FB992790F960914202822B2E
:101C70000C94F50C9091400290FF42C09178811134
:101C800002C0926007C0833210F0946403C08F7367
:101C9000880F982B9093400260914002709141020E
:101CA00080914202909143020E94650C8091400213
:101CB000982F9E77923019F410929A0110C0982FA5
:101CC00096959F732EE3290F2F73273120F491E00F
:101CD00090939A0104C0995D9F739A3068F3881FAE
:101CE0008827881F90914102292F220F97FB99275F
:101CF00090F94091430260914202822B0C94F50CC2
:101D000008958091100281608093100281E0809399
:101D10009B010E94D91C811104C00E94B81C0E9422
:101D20006B0C0E94610C609340027093410280939F
:101D30004202909343026E7761F40E946B0C0E9402
:101D4000610C609340027093410280934202909331
:101D5000430281E080939A018091400280FF04C099
:101D600086958F730C943A0E089580914002869563
:101D70008F738F5F833208F081E00C943A0E80916C
:101D8000400286958F73815009F482E20C943A0EDA
:101D900080914002982F909590FB80F980934002AB
:101DA0006091400270914102809142029091430201
:101DB0000E94650C8091400280FF04C086958F735D
:101DC0000C943A0E10929A012FEF80E792E0215086
:101DD00080409040E1F700C000000C948C0CCF9341
:101DE000C82F80919801909199010E94FA1DEC2FC3
:101DF000F0E0E552FC4FE491F0E08E179F0708F405
:101E000043C00E94EE1D90939901809398016091C8
:101E1000970170E080E090E00E94242B20E030E009
:101E20004FE753E40E94472A2BED3FE049E450E49A
:101E30000E944D2C0E94BA2C0E94C12A2BE43AE346
:101E40004EE25FE30E94DA2920EF3BEF48ED52E4D7
:101E50000E944D2C0E94F32A462F80914002881F39
:101E60008827881F90914102292F220F97FB9927DD
:101E700090F960914202822B0E94AC0C80919701F4
:101E800090E0019680939701CF910895CF93C82F4A
:101E900080919501909196010E94FA1DEC2FF0E03F
:101EA000E852FC4FE491F0E08E179F07E8F00E94A3
:101EB000EE1D9093960180939501409143026091AD
:101EC000420280919301909194010E94AC0C809108
:101ED000930190919401019668E671E00E94232D90
:101EE0009093940180939301CF910895FF920F9363
:101EF0001F93CF93DF93F82E8091910190919201DF
:101F00000E94FA1DEF2DE695F0E0EB52FC4FE491B4
:101F1000F0E08E179F07F0F10E94EE1D9093920162
:101F200080939101C0918F01D091900108E611E05A
:101F3000CE01B8010E94232D28E432E040914302F3
:101F4000609142020E94ED0BCE018C549F4FB8016C
:101F50000E94232D2BE432E0409143026091420223
:101F60000E94ED0B0E948C0C20918F01309190010A
:101F7000F0FE0AC0C9010196B8010E94232D90937A
:101F8000900180938F0106C0215031093093900158
:101F900020938F01DF91CF911F910F91FF900895B2
:101FA000AF92BF92CF92DF92EF92FF920F931F9367
:101FB000CF93DF93C82F80FF02C0DFEF01C0D1E0D5
:101FC00080918D0190918E010E94FA1DC695EC2F93
:101FD000F0E0EE52FC4FE491F0E08E179F0708F41A
:101FE00065C00E94EE1D90938E0180938D0138E4B0
:101FF000E32E32E0F32E0AE412E0A12CB12CF8011A
:1020000031971082F7011082F801108294E0C92EF6
:10201000D12CC0E080918C018C0F87FD8E5F082E43
:10202000000C990BA816B906E9F4809143028C9D27
:10203000A0018D9D500D11245595479555954795B7
:1020400080914002881F8827881F90914102592F54
:10205000550F97FB992790F9970160914202852BC4
:102060000E94ED0BCD0FF1E0CF1AD10899F683E075
:10207000E80EF11C0D5F1F4FAA94AB2821F0AA2493
:10208000A394B12CBCCF0E948C0C80918C01D130D8
:1020900039F4811103C0D0938C0108C0815004C071
:1020A00090E001968170992780938C01DF91CF9108
:1020B0001F910F91FF90EF90DF90CF90BF90AF9066
:1020C0000895EF92FF920F931F93CF93DF93C82F42
:1020D00080918A0190918B010E94FA1DEC2FF0E013
:1020E000E153FC4FE491F0E08E179F0708F465C0C0
:1020F0000E94EE1D90938B0180938A0110924902F9
:102100001092480210924A0210924C0210924B0216
:1021100010924D0288E4E82E82E0F82E0AE412E0E4
:10212000C0E0D0E080918901082E000C990BC817FF
:10213000D907ECF080910201082E000C990B8C1746
:102140009D07ACF080914002881F8827881F9091DE
:102150004102592F550F97FB992790F9970140910C
:10216000430260914202852B0E94ED0B07C0F801EB
:1021700031971082F7011082F8011082F3E0EF0E20
:10218000F11C0D5F1F4F219719F0C1E0D0E0CACFBD
:102190000E948C0C8091010190918901980F90937D
:1021A000890120910201280F20930201121614F4D4
:1021B00019161CF4819580930101DF91CF911F9135
:1021C0000F91FF90EF900895CF93DF938091870157
:1021D000909188010E94FA1D883E934070F10E9400
:1021E000EE1D9093880180938701209185013091A5
:1021F00086012F5F3F4F2170332730938601209354
:10220000850188E7829FE001839FD00D112428E497
:1022100032E04091430260914202CE010E94ED0BF8
:102220002BE432E04091430260914202CE010E94D1
:10223000ED0BDF91CF910C948C0CDF91CF91089531
:1022400080919A01882391F190914002892F86957F
:102250008F732EE3280F2F73243018F482500C94C0
:10226000EF0E2AE3280F2F73233018F486500C94B6
:10227000460F27E3280F2F73263018F489500C944B
:10228000760F21E3280F2F73263018F48F500C940B
:10229000D00F2BE2280F2F73233018F485510C94A4
:1022A00061109E77903311F40C94E41008952BB1D3
:1022B000342F309523233BB1432B3FB7F894FC01D7
:1022C000680F791FE617F70789F0819198E04BB9FD
:1022D000000000C087FF2BB9880F000000C000C0BD
:1022E00000C02BB900C09A9591F7ECCF3FBF08957D
:1022F0002AB1242B2AB99B01220F331F620F731FAF
:102300000E94571187EC90E00197F1F700C00000A0
:10231000089548E00C9478119093A1018093A00156
:102320000895E091A001F091A101309721F0019072
:10233000F081E02D099480E00895E091A001F091F2
:10234000A101309721F00280F381E02D09940895D6
:10235000E091A001F091A101309721F00480F58176
:10236000E02D0994089520919E0130919F018217DC
:10237000930771F090939F0180939E01E091A001DB
:10238000F091A101309721F00680F781E02D0994AA
:10239000089520919C0130919D018217930771F05F
:1023A00090939D0180939C01E091A001F091A10187
:1023B000309721F00084F185E02D099408950C9464
:1023C000410581E008950E94E51D0E9497030E9447
:1023D0005B1E0C94810ECF92DF92EF92FF920F93CF
:1023E0001F93CF93DF93CDB7DEB72B970FB6F8943B
:1023F000DEBF0FBECDBF0E94D6040E94E111811145
:1024000011C08FEF89838A831B820E94EE1D816039
:10241000782F9D838C8349815A816B818D810E94A5
:10242000931256C083EAC82E81E0D82E00E010E057
:10243000E02E802F0E941705F60141916F01F42EC6
:10244000F82631F40F5F1F4F0830110589F7D9CFF7
:102450009091100291FF04C08B870E941D058B850F
:1024600020E030E04F2D50E0922FBA01022E02C042
:10247000759567950A94E2F760FF24C02E83EF827A
:1024800021E030E0690102C0CC0CDD1C9A95E2F736
:1024900090E08C219D21892B09F420E028870E945F
:1024A000EE1D8160782F9A8789874E815F816885CC
:1024B0008A850E949312F801ED55FE4F8081C8264F
:1024C000C08206C02F5F3F4F2630310569F6BACF74
:1024D0000E94EE1F1091A2010E9491111817A1F005
:1024E0000E9491118093A2012B960FB6F894DEBF43
:1024F0000FBECDBFDF91CF911F910F91FF90EF9055
:10250000DF90CF900C943F092B960FB6F894DEBF66
:102510000FBECDBFDF91CF911F910F91FF90EF9034
:10252000DF90CF900895CF93DF93CDB7DEB72B9791
:102530000FB6F894DEBF0FBECDBF4F8358876987B3
:102540007A878B87DE01119686E0FD0111928A95CC
:10255000E9F785E0FE01379601900D928A95E1F743
:1025600049815A816B817C818D819E810E94A11954
:102570002B960FB6F894DEBF0FBECDBFDF91CF9183
:102580000895CF93DF931F92CDB7DEB7882309F468
:1025900003C1682F8238C1F40E94911181FDFCC0F3
:1025A00069E380910301909104010E94561D0E94ED
:1025B0004C1C2FEF81EE94E0215080409040E1F7D9
:1025C00000C0000069E319C0833811F50E94911121
:1025D00080FDE2C063E580910301909104010E94B7
:1025E000561D0E944C1C2FEF81EE94E0215080403C
:1025F0009040E1F700C0000063E5809103019091F5
:1026000004010E94611D0F90DF91CF910C944C1C2E
:102610008438C1F40E94911182FDBEC067E48091AC
:102620000301909104010E94561D0E944C1C2FEF43
:1026300081EE94E0215080409040E1F700C000001E
:1026400067E4DBCF8CEF860F813A70F4862F6983C5
:102650000E941722698181119FC08091030190918E
:1026600004010E94561DCFCF80E2860F883048F4C7
:10267000677081E001C0880F6A95EAF70E94821CAA
:10268000C2CF8BE5860F833088F4653A29F0663A2D
:1026900031F083E890E005C081E890E002C082E874
:1026A00090E00F90DF91CF910C94B31188E5860FE5
:1026B000853108F071C0683A61F1693A69F16A3AA6
:1026C00071F16B3A79F16C3A81F16B3B89F16C3BBA
:1026D00091F16D3A99F1603BA1F16E3AA9F16F3A2F
:1026E000B1F1613BB9F1623BC1F1633BC9F1643BBC
:1026F000D1F1653BD9F1663BE1F1673BE9F1683B1C
:10270000F1F1693BF9F16A3B09F43FC080E090E0E8
:102710003EC082EE90E03BC089EE90E038C08AEE89
:1027200090E035C085EB90E032C086EB90E02FC0A2
:1027300083EB90E02CC084EB90E029C087EB90E025
:1027400026C08CEC90E023C08DEC90E020C083E8A4
:1027500091E01DC08AE891E01AC082E991E017C0BB
:1027600084E991E014C081E292E011C083E292E03A
:102770000EC084E292E00BC085E292E008C086E2DF
:1027800092E005C087E292E002C08AE292E00F90F8
:10279000DF91CF910C94C9110F90DF91CF910895E3
:1027A000882309F45BC0682F823879F40E94911164
:1027B00081FF54C069E380910301909104010E945C
:1027C000561D0E944C1C69E310C08338B1F40E946E
:1027D000911180FF43C063E5809103019091040152
:1027E0000E94561D0E944C1C63E58091030190914C
:1027F00004010E94611D0C944C1C843879F40E94E1
:10280000911182FF2BC067E4809103019091040134
:102810000E94561D0E944C1C67E4E7CF8CEF860F88
:10282000813A18F380E2860F883048F4677081E0BF
:1028300001C0880F6A95EAF70E94881CDCCF8BE5FF
:10284000860F833020F480E090E00C94B311685A36
:10285000653120F480E090E00C94C911089588233C
:1028600021F00E94821C0C944C1C0895882321F0B6
:102870000E94881C0C944C1C08954F925F926F929A
:102880007F92AF92BF92CF92DF92EF92FF920F931F
:102890001F93CF93DF931F92CDB7DEB77C01A72E96
:1028A000FC01058102950F701281112321F06983CB
:1028B0000E949F1C698169830E94451C698188234D
:1028C00081F0112371F080E2860F883050F082E0B1
:1028D0000E942E1C0E94451C91E0B82EB9266981E9
:1028E00001C0B12CCA2CC2948FE0C822D12CF601B1
:1028F000E859FF4F0C944B2D8A2D807F0A2D0F70C5
:10290000882311F00295007F1123C1F0002309F400
:10291000DCC180E2860F883010F0611105C0802F85
:1029200069830E94821C04C0802F69830E94921CCC
:10293000698169830E944C1C6981C7C1862F6983A4
:102940000E94D0136981002309F4E2C180E2860F5E
:10295000883010F0611104C0802F0E94881C03C0D1
:10296000802F0E94981C0E944C1CD2C18A2D807F0F
:102970009A2D9F70803211F4892F03C0892F829580
:10298000807F662319F06130B1F01FC0112349F038
:10299000002309F452C1013009F04FC10E94B21C5A
:1029A000B7C1002319F0013009F4B2C189830E9434
:1029B000B51C898148C1112321F0033008F0A8C15A
:1029C0003CC1023008F0A4C13EC1112351F00023E4
:1029D00009F433C1F701958190FF77C19F7095830A
:1029E0002CC1002309F42FC181C18A2D86958695BB
:1029F000837090E0009719F0019761F089C111236D
:102A000021F0862F9A2D937002C080E090E00E9402
:102A1000B3118EC1112321F0862F9A2D937002C01D
:102A200080E090E00E94C91183C11123F9F0653F55
:102A300051F0663F71F0643FA9F480914E0290918D
:102A40004F0281600BC080914E0290914F028260D4
:102A500005C080914E0290914F02846090934F0286
:102A600080934E02862F0E94F61E1EC0653F51F0D5
:102A7000663F71F0643FA9F480914E0290914F023D
:102A80008E7F0BC080914E0290914F028D7F05C0CA
:102A900080914E0290914F028B7F90934F028093D2
:102AA0004E02862F0E945E1F0E94E31F41C18A2DA5
:102AB000837009F052C0111137C1862F8295869517
:102AC0008770880F880F962F9F70492E512C612C8C
:102AD000712C082E04C0440C551C661C771C0A94EB
:102AE000D2F764FF14C00FE010E020E030E0B9013D
:102AF000A80104C0440F551F661F771F8A95D2F79F
:102B0000CB01BA01609570958095909503C060E007
:102B100070E0CB012A2D26952695237030E02230D7
:102B2000310569F02330310589F06429752986293A
:102B300097292130310571F00E94E41AF5C064290B
:102B40007529862997290E94F61AEEC00E94E41A78
:102B5000C301B2010E94D21AE7C0112319F08A2DD5
:102B6000817001C08695882309F4DEC0862F829586
:102B700086958770880F880F962F9F70492E512C4D
:102B8000612C712C082E04C0440C551C661C771C4B
:102B90000A94D2F764FF14C00FE010E020E030E0A8
:102BA000B901A80104C0440F551F661F771F8A95FD
:102BB000D2F7CB01BA01609570958095909503C0CE
:102BC00060E070E0CB012A2D269526952370422FD8
:102BD00050E04230510569F04330510589F06429D5
:102BE0007529862997294130510571F00E94A81B4B
:102BF0009BC064297529862997290E94BA1B94C015
:102C00000E94A81BC301B2010E94961B8DC0862F93
:102C100090E0FC01E05EF109E531F10508F051C0FA
:102C2000E858FF4F0C944B2D062F0F708A2D8F7193
:102C3000112331F00E942F1B802F0E942F1468C097
:102C40000E94501B802F0E94361462C0112341F055
:102C5000023008F05DC08A2D8F710E94751B58C02C
:102C6000033008F055C0F7CF112339F08A2D8F714A
:102C70000E942F1B4DC01123C9F38A2D8F710E9412
:102C8000501B46C0112329F08A2D8F710E941A1BF8
:102C90003FC00E94151B3CC0112351F01A2D1F711B
:102CA000812F0E942F1B63E0812F0E94251C30C0C2
:102CB00081E00E942E1C023058F182E00E942E1CFE
:102CC00027C0112331F0002389F2862F0E94C11200
:102CD0001FC0002391F2693349F45FEF77EE83E080
:102CE000515070408040E1F700C00000862F0E94E4
:102CF000D0130EC04A2D4F70C7010E946F060E946C
:102D0000451A16C04A2D4F70C7010E94410910C0D4
:102D100098E0C916D10441F05CF0FAE0CF1AD1086E
:102D200022E0C216D10420F40E9491110E943F09B2
:102D3000BB2001F10E94211C80FD1CC0F701128202
:102D40000E941B1C0E942F1BC7010E94CA160E94D2
:102D50001B1C0F90DF91CF911F910F91FF90EF906F
:102D6000DF90CF90BF90AF907F906F905F904F902B
:102D70000C94501B0F90DF91CF911F910F91FF90FA
:102D8000EF90DF90CF90BF90AF907F906F905F906B
:102D90004F9008950F931F93CF93DF93EC01888199
:102DA00099812B813C81232BB9F09F3F11F48F3FF8
:102DB00099F0CE010E94D506882371F0688179814F
:102DC0008A810E94171C8C010E94CC1B0E94CF1A82
:102DD000B801CE010E943D14DF91CF911F910F9158
:102DE00008950E949F1C0E94AF1C80910301909146
:102DF00004010E946C1D0E944C1C0E947C200E94B9
:102E0000E31F80E090E00E94B31180E090E00C941A
:102E1000C9110E948F1C0C94F1160E940C1CE92F02
:102E2000E295EF70F0E03297EE30F105B0F4E35741
:102E3000FF4F0C944B2D803F91F018F4803E68F4C6
:102E40000EC0843F51F40BC0803E48F0813F29F40E
:102E500006C093FB882780F9089580E0089581E0FB
:102E60000895CF93DF9300D000D01F92CDB7DEB787
:102E70000F900F900F900F900F90DF91CF910895CA
:102E8000CF93DF9300D000D000D0CDB7DEB7269629
:102E90000FB6F894DEBF0FBECDBFDF91CF9108957E
:102EA0001F93CF93DF93C091AB0116E08091AC01EB
:102EB000C81799F0D0E01C9FF0011D9FF00D112460
:102EC000E355FE4F408151816281738184819581F8
:102ED0000E9440172196C770E9CFDF91CF911F91D3
:102EE00008954091DD015091DE016091DF01709104
:102EF000E0018091E1019091E2010C9440178091F2
:102F0000E20182958F7009F054C08091DF0188231F
:102F100009F44FC08091AB01A091AC016091DD013B
:102F20007091DE014091E0015091E101B6E08A1715
:102F300009F43FC090E041155105C1F17F3F11F404
:102F40006F3FA1F1B89FF001B99FF00D1124E35537
:102F5000FE4F218172132AC02081621327C0228173
:102F6000211124C0238134812417350710F4215006
:102F70003109241B350B283C3105C0F42091E201B6
:102F80002F7020612093E20126E0289FF001299F05
:102F9000F00D1124EE54FE4F80818F70806180838C
:102FA0008DED91E00E94CA160C945017019687701F
:102FB000BECF0895CF92DF92EF92FF920F931F93AF
:102FC000CF93DF93CDB7DEB762970FB6F894DEBF2D
:102FD0000FBECDBF8C0185E0F801DE011D9601908A
:102FE0000D928A95E1F7D8014C9111965C91119759
:102FF00012966C9112971396CD90DC9014973091A5
:10300000DD017091DE018091E0019091E101009776
:1030100009F46BC17F3F19F43F3F09F466C1E090AA
:10302000DF01EE2009F4C0C02091E201C816D906E4
:1030300028F0F601E81BF90BCF0104C080959095AC
:103040008C0D9D1DFF24F394883C910578F0F12CA4
:10305000207F09F0C6C07C2DD98AC88A89890E9440
:1030600031178DED91E00E94CA16B1C0822F807F8A
:1030700009F046C0751314C0341312C0611110C09A
:103080002F7020612093E2010E9471178DED91E075
:103090000E94CA168091E201D80115968C932EC029
:1030A000CD2819F15F3F11F44F3FF9F0F62E611171
:1030B0001CC08091AB012091AC0136E0821709F46D
:1030C0005AC090E0389FF001399FF00D1124E3556C
:1030D000FE4F7181571306C07081471303C0728180
:1030E000711103C001968770E9CFF62E662309F4AB
:1030F00018C18091E20181608093E201F12C11C13D
:10310000751308C0341306C0611104C08091E20138
:10311000D801C3C04D875E878D859E856A8B0E94CE
:103120000D176A898823E1F16623D1F12091E2012C
:10313000822F82958F7090E0029774F08091DD016C
:103140009091DE0198878F831986DB86CA862C874B
:10315000CE0107960E94CA1686E0F801ADEDB1E0F7
:1031600001900D928A95E1F70E947F170E947117D6
:10317000FF24F394D6C04D875E878D859E850E947F
:103180000C1C292F22952F7030E0223031050CF0D5
:10319000BCC09F7009F0B6C0805E883008F4C1C022
:1031A000C8010E94CA16E4CFC816D90608F453C055
:1031B000F601E81BF90BCF01883C910508F450C0DB
:1031C000F12C7C2DD98AC88A89890E943117EDEDAE
:1031D000F1E086E0DF011D928A95E9F70E94711700
:1031E000A0C0751314C0341312C0611110C08091B7
:1031F000E201F8018583C8010E94CA1686E0EDED60
:10320000F1E0DF011D928A95E9F7FE2C8AC04D8717
:103210005E878D859E856A8B0E940D176A8988233B
:1032200009F4BECF662309F4BBCF2091E201822FBF
:1032300082958F7090E002970CF48ECF8091DD0123
:103240009091DE019A8389831B82DD82CC822E835A
:10325000CE0101967FCF809590958C0D9D1DACCFB2
:10326000F62E662309F49CCF75132EC034132CC0A0
:103270002091E20120FD1FC0822F82958F70D9F02E
:10328000D80115962C9315978F3049F08F5F982FA2
:103290009295907F822F8F70892B15968C93C80101
:1032A0000E94CA1686E0F801ADEDB1E001900D92E2
:1032B0008A95E1F793CF86E0F801ADEDB1E001909A
:1032C0000D928A95E1F72DC04D875E878D859E858D
:1032D0000E940D17811140CF8091E201816080939F
:1032E000E201C8010E94CA161CC0662309F458CF27
:1032F0004D875E878D859E850E940D17882309F472
:103300004FCF2ACF811148CF0CC0243031050CF0AB
:1033100047CF9F7009F440CFF8019581907F09F065
:103320003BCF8F2D62960FB6F894DEBF0FBECDBF98
:10333000DF91CF911F910F91FF90EF90DF90CF9091
:1033400008951F93CF93DF93CDB7DEB72C970FB6B9
:10335000F894DEBF0FBECDBF4F83588769877A8749
:103360008B879C87CE0107960E94DA17882369F025
:103370008F8198852A853B85232BF1F19F3F09F0AA
:1033800063C08F3F09F060C037C086E0FE0137960A
:10339000DE01119601900D928A95E1F76F81788593
:1033A000EA85FB85309741F17F3F11F46F3F21F1B2
:1033B0002091AC0130E0C9010196877099274091B6
:1033C000AB0150E08417950709F447C069837A83FD
:1033D000FD83EC8396E0929FD001939FB00D112462
:1033E000A355BE4FFE01319601900D929A95E1F7DB
:1033F0008093AC010E94501716E08091AB01909130
:10340000AC018917C1F1189FC001112483559E4F4B
:103410000E94DA17882379F1E091AB011E9FF00139
:103420001124E355FE4F4081518162817381848173
:1034300095810E9440178091AB0190E001968770C2
:1034400099278093AB01D9CF4F81588569857A85BB
:103450008B859C850E944017CFCF0E940917109240
:10346000AC011092AB01EDEDF1E086E0DF011D92C1
:103470008A95E9F7C1CF2C960FB6F894DEBF0FBE40
:10348000CDBFDF91CF911F910895EF92FF920F93DF
:103490001F93CF93DF938C01892B09F46CC0F12C1F
:1034A000EE24E394E8012196F8018491843740F4F6
:1034B000843008F051C0813081F0823019F15BC056
:1034C000853709F444C0A8F19CE7980F903708F0BD
:1034D00052C08F770E94D01341C00E5F1F4FFE0174
:1034E000C49180E28C0F883048F4C7708E2D01C0E3
:1034F000880FCA95EAF70E94A21C14C08C2F0E9464
:10350000C1122DC00E5F1F4FFE01C49180E28C0FCF
:10351000883058F4C7708E2D01C0880FCA95EAF71D
:103520000E94A81C0E944C1C1AC08C2F0E94D01311
:1035300016C00E5F1F4FFE01C491CC2381F08FE9AE
:103540009FE00197F1F700C00000C150F6CF0E5F79
:103550001F4FFE01F49003C00E94C1128E018F2DF7
:10356000882309F49FCFEFE9FFE03197F1F700C01E
:1035700000008150F5CFDF91CF911F910F91FF9007
:10358000EF90089508950E94C21A6093E701709326
:10359000E8018093E9019093EA010C94F1160895F3
:1035A0000C94C31A0F931F930091E7011091E80147
:1035B0002091E9013091EA01602B712B822B932B32
:1035C0001F910F910C94C31A0F931F930091E70161
:1035D0001091E8012091E9013091EA016023712303
:1035E000822393231F910F910C94C31A0F931F935F
:1035F0000091E7011091E8012091E9013091EA0181
:1036000060277127822793271F910F910C94C31A6B
:1036100008950E94081B6093E3017093E401809376
:10362000E5019093E6010C94F11660E070E0CB01A7
:103630000C94091B0F931F9341E050E060E070E091
:103640008A019B0104C0000F111F221F331F8A959E
:10365000D2F7C901B8011F910F910C94091B0F9368
:103660001F9341E050E060E070E004C0440F551F3C
:10367000661F771F8A95D2F78091E3019091E4014C
:10368000A091E501B091E6018A019B01082B192B5D
:103690002A2B3B2BC901B8011F910F910C94091BD8
:1036A0000F931F9341E050E060E070E004C0440FCE
:1036B000551F661F771F8A95D2F7409550956095E4
:1036C00070958091E3019091E401A091E501B091A2
:1036D000E6018A019B01082319232A233B23C90100
:1036E000B8011F910F910C94091B0F931F9341E098
:1036F00050E060E070E004C0440F551F661F771F64
:103700008A95D2F78091E3019091E401A091E501BF
:10371000B091E6018A019B01082719272A273B2738
:10372000C901B8011F910F910C94091B0F931F93AE
:103730000091E3011091E4012091E5013091E6014F
:10374000602B712B822B932B1F910F910C94091BD3
:103750000F931F930091E3011091E4012091E50183
:103760003091E60160237123822393231F910F91EF
:103770000C94091B0F931F930091E3011091E40136
:103780002091E5013091E601602771278227932778
:103790001F910F910C94091B0895CF92DF92EF9225
:1037A000FF920F931F93CF93DF938C01C090E7019B
:1037B000D090E801E090E901F090EA018091E30106
:1037C0009091E401A091E501B091E601C82AD92ABF
:1037D000EA2AFB2ACFE1D0E0D701C6010C2E04C0B3
:1037E000B695A795979587950A94D2F780FF06C05E
:1037F000B8018C2F0E945C09019721F4219760F792
:1038000080E001C08C2FDF91CF911F910F91FF902D
:10381000EF90DF90CF900895CF93DF93EC010E945B
:10382000CD1BBE010E945C09DF91CF910895CB01B1
:103830000E940C1C08958091EB01859585958595D6
:1038400008958091EB018770089598E0899F900119
:103850001124262B2093EB010C942F1B2091EB01BC
:10386000809582238093EB01982F977069F430E064
:10387000482F082E000C550B2417350729F0859585
:10388000859585950C94501B08959091EB01977048
:1038900081E009F480E00895E0910301F0910401D2
:1038A00080910F028083E0910301F09104019081E7
:1038B00080910E02892B8083E0910301F091040135
:1038C000908180910D02892B80838091EC01882367
:1038D00081F0E0910301F09104019081892B8083B4
:1038E00080910301909104010E94FA1C81111092B1
:1038F000EC0180910301909104010C949D11809141
:103900000F02089590910F02892B80930F02089562
:10391000809590910F02892380930F020895109251
:103920000F02089590910E02892B80930E02089544
:10393000809590910E02892380930E020895109233
:103940000E02089590910D02892B80930D02089527
:10395000809590910D02892380930D020895109215
:103960000D0208958093EC0108951092EC010895E2
:103970006DEE7EEF80E090E00E94832D60E082E0BB
:1039800090E00E94652D60E083E090E00E94652D4C
:1039900060E084E090E00E94652D60E085E090E0CA
:1039A0000E94652D40E050E0BA0188E090E00C9460
:1039B000772D80E090E00E945F2D21E08D3E9E4FAC
:1039C00009F020E0822F089582E090E00C94512DC0
:1039D00083E090E00C94512D682F83E090E00C94EC
:1039E000652D84E090E00C94512D682F84E090E0E8
:1039F0000C94652DFC0131969C01205E3F4F80E0C8
:103A0000919191118F5FE217F307D1F708959C010F
:103A1000FC0132969FEF80E04191461789F09F3F6D
:103A200019F4411101C0982F8F5F8E31A9F79F3F84
:103A300039F0F901E90FF11D97FDFA9562830895B8
:103A40000895FC01329680962081261301C01082D1
:103A50003196E817F907C1F70895262F2695269580
:103A600026952F3168F4FC01E20FF11D677021E00B
:103A700030E001C0220F6A95EAF78181282B21836B
:103A80000895262F2695269526952F3170F4FC0152
:103A9000E20FF11D677021E030E001C0220F6A954E
:103AA000EAF720958181282321830895209115012B
:103AB000222329F02091540227FD0C942D1D0C94F3
:103AC000071D20911501222329F02091540227FD82
:103AD0000C94411D0C94211DFC013196809611928D
:103AE000E817F907E1F7089580915A02843039F117
:103AF0001092110220E488E190E00FB6F894A895A6
:103B0000809360000FBE2093600080E00E943F0918
:103B100083B7817F846083BF83B7816083BF7894DC
:103B2000889583B78E7F83BF0FB6F894A895809150
:103B30006000886180936000109260000FBE08955D
:103B400008950895CF930E94A01D0E94D6040E945C
:103B5000A11DC0E08C2F0E941705811104C0CF5F0A
:103B6000C830C1F701C081E0CF9108950E940917C4
:103B70000E9491110C943F091F920F920FB60F9261
:103B800011248F939F93AF93BF9380911102811162
:103B900013C08091500290915102A0915202B091B5
:103BA00053024196A11DB11D809350029093510282
:103BB000A0935202B0935302BF91AF919F918F9106
:103BC0000F900FBE0F901F90189582E084BD93E078
:103BD00095BD9AEF97BD80936E0008952FB7F89426
:103BE0008091500290915102A0915202B0915302E3
:103BF0002FBF0895CF92DF92EF92FF920F931F9302
:103C00002FB7F894409150025091510260915202A6
:103C1000709153022FBF6A017B01EE24FF248C01B7
:103C200020E030E0C016D106E206F30610F4415061
:103C300051099A01281B390BC9011F910F91FF905F
:103C4000EF90DF90CF90089578941F920F920FB667
:103C50000F9211248F939F93AF93BF938091500243
:103C600090915102A0915202B09153020196A11D70
:103C7000B11D8093500290935102A0935202B093D1
:103C80005302BF91AF919F918F910F900FBE0F90F4
:103C90001F90189587E797E7909301088093000895
:103CA0009AE088E10FB6F894A895809360000FBE63
:103CB00090936000FFCF0E94D91C811102C00E9426
:103CC000B81C0E94E41C809310020E94F11C90E03A
:103CD00090935502809354020E94E81C682F70E074
:103CE00080E090E00C94D01A8091140280FF0BC009
:103CF0006091080185E0689FB00111247595679572
:103D0000759567952BC081FF09C06091080185E01A
:103D1000689FB00111247595679520C082FF07C088
:103D20006091080185E0689FB001112417C090914F
:103D300015029923D1F060910701961788F7209119
:103D4000080185E0289F90011124929FA001939F74
:103D5000500D112470E0CA010E94372D60387105A2
:103D600040F46115710539F002C065E070E0862FFE
:103D700008958FE7089581E008958091140280FFEF
:103D800008C06091060170E0759567957595679517
:103D900021C081FF06C06091060170E075956795AE
:103DA00019C082FF04C06091060170E010C09091BC
:103DB00015029923C1F0609105019617A0F7809133
:103DC0000601899FC001112470E00E94372D6038E0
:103DD000710528F46115710521F0862F08958FE78C
:103DE000089581E0089561E070E0F4CF803F21F410
:103DF0000E94741E819504C0813F29F40E94741EA4
:103E0000809318020895823F21F40E94741E8195C8
:103E100004C0833F29F40E94741E80931702089502
:103E2000893F19F40E94BD1E05C08A3F31F40E94EB
:103E3000BD1E81958093190208958B3F21F40E9445
:103E4000BD1E819504C08C3F29F40E94BD1E809345
:103E50001A020895843F21F480911602816017C0F0
:103E6000853F21F480911602826011C0863F21F4C3
:103E70008091160284600BC0873F21F48091160266
:103E8000886005C0883F31F480911602806180937C
:103E9000160208958D3F21F48091140281600BC0B9
:103EA0008E3F21F480911402826005C08F3F29F477
:103EB000809114028460809314020895803F39F445
:103EC0008091180287FF6CC01092180269C0813F70
:103ED00029F4809118021816BCF362C09091170261
:103EE000823F29F497FF5CC01092170259C0833FAC
:103EF00019F41916CCF354C0893F41F4809119028A
:103F000018160CF04DC0109219024AC08A3F29F4CD
:103F10008091190287FF44C0F6CF8B3F39F480911E
:103F20001A0287FF3DC010921A023AC08C3F29F452
:103F300080911A021816BCF333C0843F21F480919B
:103F400016028E7F17C0853F21F4809116028D7F67
:103F500011C0863F21F4809116028B7F0BC0873FF2
:103F600021F480911602877F05C0883F31F480914B
:103F700016028F7E8093160213C08D3F21F480912C
:103F800014028E7F0BC08E3F21F4809114028D7F2E
:103F900005C08F3F29F4809114028B7F8093140217
:103FA0008091170281110EC08091180281110AC000
:103FB00080911902811106C080911A02811102C0FC
:103FC00010921502089586E192E00E94A8110E94C5
:103FD000EE1D909313028093120208951F93CF93C6
:103FE000DF9380911202909113020E94FA1DAC019E
:103FF00090911502992321F02091090130E006C02B
:1040000020910A018AE0289F90011124421753074A
:1040100008F46EC080911702C0911802D091190265
:1040200010911A02811107C0C1115EC0D1115CC08C
:1040300011115AC05DC09F3F19F09F5F9093150208
:10404000181624F40E94741E8093170280911702A0
:1040500087FF05C00E94741E8195809317021C166D
:1040600024F40E94741E809318028091180287FF26
:1040700005C00E94741E819580931802409117021A
:10408000442379F030911802332359F025EB420391
:10409000A0011124509317023203C0011124909300
:1040A00018021D1624F40E94BD1E809319028091EF
:1040B000190287FF05C00E94BD1E819580931902D9
:1040C000111624F40E94BD1E80931A0280911A02D8
:1040D00087FF05C00E94BD1E819580931A02DF9163
:1040E000CF911F910C94E31F9F3F09F0A6CFAECF55
:1040F000DF91CF911F910895E6E1F2E085E0DF01C5
:104100001D928A95E9F710921502109214020895F3
:10411000833081F128F4813059F08230D1F0089554
:10412000853009F449C0B8F1863009F456C00895C5
:1041300080910A01262F30E0280F311D2F3F3105D5
:1041400024F4680F60930A0108958FEF80930A01A9
:10415000089580910901262F30E0280F311D2F3F4F
:10416000310524F4680F6093090108958FEF80935F
:104170000901089580910801262F30E0280F311D94
:104180002F3F310524F4680F6093080108958FEFE5
:1041900080930801089580910701262F30E0280FB1
:1041A000311D2F3F310524F4680F609307010895F6
:1041B0008FEF80930701089580910601262F30E04C
:1041C000280F311D2F3F310524F4680F609306013D
:1041D00008958FEF80930601089580910501262FA1
:1041E00030E0280F311D2F3F310524F4680F609314
:1041F000050108958FEF809305010895833011F133
:1042000028F4813049F0823091F00895853081F1B1
:1042100020F18630C1F1089580910A01681720F4D9
:10422000861B80930A01089510920A0108958091D7
:104230000901681720F4861B8093090108951092E4
:104240000901089580910801681720F4861B809366
:1042500008010895109208010895809107016817D8
:1042600020F4861B8093070108951092070108959A
:1042700080910601681720F4861B8093060108953B
:1042800010920601089580910501681720F4861B9D
:104290008093050108951092050108950F931F93CF
:1042A000873208F04DC08E3108F093C0803109F498
:1042B0007DC008F5873009F46BC068F4863009F0DA
:1042C000A3C080911002817F8E7F8093100281E0D5
:1042D00080931C029AC08B3009F48FC08E3009F095
:1042E00093C08091100282FB222720F991E092274F
:1042F00090FB82F964C0863109F47FC088F4813173
:1043000009F082C00E9409178091540287FB22277E
:1043100020F991E0922790FB87F9809354026DC0B9
:10432000893109F46AC08B3109F06EC080911002A6
:1043300081FB222720F991E0922790FB81F93FC071
:10434000883309F45AC050F4893209F458C08533CF
:1043500009F455C0873209F452C056C0833409F4B9
:104360004EC028F48A3308F44FC0895333C08834D0
:1043700009F04AC00E9409170FEF13ED20E3015026
:1043800010402040E1F700C000000E944A1E35C0E6
:1043900080911002982F9095917090FB80F98093F6
:1043A000100291112AC0897F877F10C0809110026E
:1043B00083FB222720F991E0922790FB83F98093D9
:1043C00010029923D1F08091100281608093100235
:1043D00014C08D5141E050E060E070E08A019B0123
:1043E00004C0000F111F221F331F8A95D2F7C90185
:1043F000B8010E94D01A0E94091781E006C061E04E
:1044000070E080E090E0F5CF80E01F910F9108957B
:1044100080E0089580E008958E518A3030F4E82FCE
:10442000F0E0E85CFE4F8081089580E00895CF932E
:10443000C82F80911C02813069F018F08230C9F1D8
:1044400083C0E0910301F09104018081823209F080
:104450007DC007C0E0910301F091040180818232A8
:1044600061F48C2F0E940822811104C08C2F0E94BD
:104470004E211DC081E090E01AC08C2F0E940A22BC
:10448000811114C0C43179F048F4CB3079F0C031D7
:1044900009F060C082E080931C0208C0C93219F0A4
:1044A000C83321F057C010921C0254C081E08170C3
:1044B00053C0C93289F118F5C43171F1B0F4C73075
:1044C00009F046C08EE180930A0182E380930901DE
:1044D0008AE08093080184E18093070188E080935B
:1044E000060188E28093050133C082EE8C0F86308E
:1044F00078F58C2F0E940C2280931B0229C0CE34A9
:10450000E9F020F4CB3421F56AE013C0C13579F02D
:10451000C235F1F461E00DC080911B02882319F0CF
:1045200010921B0215C081E080931C0215C061E04F
:1045300006C080911B020E9488200AC06AE0809118
:104540001B020E94FE2004C010921C0280E004C0E6
:1045500081E002C080E0ABCFCF91089580913D0211
:1045600008950F931F93CF93DF9300D01F92CDB781
:10457000DEB78C010E942125823011F0843019F5BC
:1045800093E099831B830A839093E9008FEF9091C6
:10459000E800815095FD06C095ED9A95F1F7000071
:1045A0008111F5CF8091E80085FF0DC040E050E01B
:1045B00063E070E0CE0101960E943E258091E80004
:1045C0008E778093E8000F900F900F90DF91CF913E
:1045D0001F910F910895CF93DF9300D01F92CDB715
:1045E000DEB720915A02243031F522E02983805829
:1045F00091099B838A8383E08093E9008FEF9091F8
:10460000E800815095FD06C095ED9A95F1F7000000
:104610008111F5CF8091E80085FF0DC040E050E0AA
:1046200063E070E0CE0101960E943E258091E80093
:104630008E778093E8000F900F900F90DF91CF91CD
:104640000895CF93DF93EC010E942125823011F071
:104650008430F9F482E08093E9009FEF8091E800D4
:10466000915085FD06C085ED8A95F1F70000911106
:10467000F5CF8091E80085FF0CC040E050E065E098
:1046800070E0CE010E943E258091E8008E778093F5
:10469000E800DF91CF910895CF93DF93EC010E9462
:1046A0002125823019F0843009F047C0809115012E
:1046B0008823E1F08091540287FF18C084E0809342
:1046C000E9008FEF9091E800815095FD06C095E1DB
:1046D0009A95F1F700008111F5CF8091E80085FFF0
:1046E0002CC040E050E060E270E017C081E08093B1
:1046F000E9008FEF9091E800815095FD06C095ED9F
:104700009A95F1F700008111F5CF8091E80085FFBF
:1047100014C040E050E068E070E0CE010E943E2509
:104720008091E8008E778093E80080E2FE01ADE1A1
:10473000B2E001900D928A95E1F7DF91CF91089553
:1047400080915902811109C00E94D3260E9430270E
:104750008091E20084608093E200089510925902F3
:104760000895089508950C94B61D42E061EC81E02F
:104770000E944D2642E061EC82E00E944D2642E01C
:1047800061EC83E00E944D2642E261EC84E00C94EF
:104790004D2680915C02833009F455C030F481309D
:1047A00071F0823009F48EC008958A3009F47AC01D
:1047B0008B3009F460C0893009F09CC020C0809122
:1047C0005B02813A09F096C08091E800877F809370
:1047D000E80080915F0290916002892B21F460E2F1
:1047E0008DE192E003C060E080E090E070E00E9424
:1047F00089258091E8008B778093E8000895809167
:104800005B02813209F076C080915F029091600274
:10481000009719F0039709F06DC08091E800877F39
:104820008093E8008091E80082FD05C080915A02E3
:104830008111F8CF5FC08091F10080933D0280919B
:10484000E8008B7753C080915B02813A09F052C037
:1048500080915F0290916002892B09F04BC080919A
:10486000E800877F8093E8008091E80080FFFCCF1C
:104870008091150136C080915B028132D9F580911B
:104880005F0290916002892BA9F58091E800877FF3
:104890008093E8000E94822680915D02809315013A
:1048A0000C94091780915B02813221F58091E80018
:1048B000877F8093E8000E94822680915E02809329
:1048C0003E02089580915B02813AA1F48091E80054
:1048D000877F8093E8008091E80080FFFCCF809183
:1048E0003E028093F1008091E8008E778093E8008B
:1048F0000C948226089584B7877F84BF0FB6F894FE
:10490000A89580916000886180936000109260009B
:104910000FBE80E880936100109261000E94DF1159
:104920000E94D3260E9430278091E2008460809309
:10493000E20078940E94BF290E94E3118BE091E08D
:104940000E948C1180915A02853069F40E94741D76
:10495000809158028823B1F30E94A21D882391F30D
:104960000E942825EFCF0E94EB110E942011EACF70
:10497000292F332723303105C9F064F42130310564
:1049800081F02230310509F043C08DE690E029E145
:1049900035E042C021323105F1F02232310541F1DA
:1049A00037C082E190E026E835E036C099278130B3
:1049B000910541F08230910541F0892B49F5E5E1FF
:1049C000F5E005C0EDEFF4E002C0EFEDF4E0849116
:1049D00090E09F0121C064307105D0F4660F771F0D
:1049E000FB01E25BFE4F2081318189E090E014C041
:1049F0006430710568F4FB01EE0FFF1FEA5BFE4FA8
:104A000020813181FB01EE5BFE4F808190E004C08C
:104A100080E090E020E030E0FA01318320830895C7
:104A20000895CF93C82F0E941025C0933F02CF91C5
:104A3000089580915A02843011F081E0089582E057
:104A4000089580913F02811102C00C9419250895A8
:104A500080E189BD82E189BD09B400FEFDCF80916E
:104A6000D8008F7D8093D8008091E0008260809391
:104A7000E0008091E00081FDFCCF0895CF92DF92AD
:104A8000EF92FF920F931F93CF93DF93EC018B0173
:104A90006A010E94A126811133C0C114D10439F0EA
:104AA000F60180819181081B190BC80FD91FE12CD9
:104AB000F12C0115110519F18091E80085FD16C052
:104AC0008091E8008E778093E800C114D10449F00A
:104AD000F60180819181E80EF91EF182E08285E085
:104AE0000FC00E94A126882321F30AC089918093D8
:104AF000F10001501109FFEFEF1AFF0ADACF80E051
:104B0000DF91CF911F910F91FF90EF90DF90CF90A9
:104B1000089520916102309162022617370748F00C
:104B20006115710539F42091E8002E772093E80093
:104B300001C0B90140E061157105A9F120915A0247
:104B4000222309F443C0253009F442C02091E80033
:104B500023FD40C02091E80022FD32C02091E800F2
:104B600020FFE9CF4091F3002091F20030E0342B98
:104B7000FC01CF016115710559F02830310540F471
:104B800081918093F100615071092F5F3F4FF1CF08
:104B900041E02830310509F040E02091E8002E770F
:104BA0002093E800C8CF4111C9CF0AC080915A02B2
:104BB000882361F0853061F08091E80083FD0AC0B0
:104BC0008091E80082FFF2CF80E0089582E00895AE
:104BD00083E0089581E0089520916102309162029E
:104BE0002617370748F06115710539F42091E80060
:104BF0002E772093E80001C0B901FC0120E0611587
:104C0000710591F180915A02882309F440C08530E2
:104C100009F43FC08091E80083FD3DC08091E80029
:104C200082FD2FC08091E80080FFE9CF2091F30042
:104C30008091F20090E0922B6115710559F0883057
:104C4000910540F424912093F1003196615071094F
:104C50000196F2CF21E0089709F020E08091E8006A
:104C60008E778093E800CBCF2111CCCF0AC0809102
:104C70005A02882361F0853061F08091E80083FD5D
:104C80000AC08091E80082FFF2CF80E0089582E0C0
:104C9000089583E0089581E00895982F973058F59E
:104CA0009093E900981739F07091EC002091ED0095
:104CB0005091F00003C0242F762F50E021FF19C03F
:104CC0003091EB003E7F3093EB003091ED003D7F63
:104CD0003093ED003091EB0031603093EB00709336
:104CE000EC002093ED005093F0002091EE0027FFA0
:104CF00007C09F5FD3CF8F708093E90081E0089554
:104D000080E0089580915B0287FF11C08091E800E8
:104D100082FD05C080915A028111F8CF11C08091A7
:104D2000E8008B770BC080915A02882349F080916C
:104D3000E80080FFF8CF8091E8008E778093E8004C
:104D400008952091E4003091E50095E64091EC0053
:104D5000842F817040FF22C08091E80080FD1CC03C
:104D600080915A02882391F0853091F08091EB0078
:104D700085FD10C04091E4005091E50042175307B3
:104D800029F39A01915011F784E0089582E0089583
:104D900083E0089581E0089580E008954091E8005F
:104DA00042FFDECF08950E9441270E944927E0EE8E
:104DB000F0E0808181608083E8EDF0E080818F7792
:104DC000808319BCA7EDB0E08C918E7F8C9380819D
:104DD0008F7E80831092590208950F931F93CF9373
:104DE000DF930E9441270E944927C8EDD0E08881C7
:104DF0008F77888388818068888388818F7D888386
:104E000019BC10925A021092560210925802109237
:104E1000570200EE10E0F80180818B7F808388814B
:104E20008160888342E060E080E00E944D26E1EEF0
:104E3000F0E080818E7F8083E2EEF0E0808181600F
:104E40008083808188608083F80180818E7F808369
:104E5000888180618883DF91CF911F910F910895A0
:104E6000E8EDF0E080818F7E8083E7EDF0E08081E7
:104E70008160808384E082BF81E0809359020C943A
:104E8000ED26E8EDF0E080818E7F80831092E200D5
:104E900008951092DA001092E10008951F920F9287
:104EA0000FB60F9211242F933F934F935F936F93FD
:104EB0007F938F939F93AF93BF93EF93FF938091D3
:104EC000E10082FF0BC08091E20082FF07C0809169
:104ED000E1008B7F8093E1000E94BE298091DA007F
:104EE00080FF1FC08091D80080FF1BC08091DA0036
:104EF0008E7F8093DA008091D90080FF0DC080E121
:104F000089BD82E189BD09B400FEFDCF81E08093B7
:104F10005A020E94A02305C019BC10925A020E9496
:104F2000AE238091E10080FF19C08091E20080FFF4
:104F300015C08091E2008E7F8093E2008091E200B4
:104F400080618093E2008091D80080628093D800D5
:104F500019BC85E080935A020E94B2238091E1003F
:104F600084FF30C08091E20084FF2CC080E189BDC5
:104F700082E189BD09B400FEFDCF8091D8008F7D0C
:104F80008093D8008091E1008F7E8093E100809132
:104F9000E2008F7E8093E2008091E2008160809346
:104FA000E20080915602882311F084E007C08091CE
:104FB000E30087FD02C081E001C083E080935A02D4
:104FC0000E94B3238091E10083FF29C08091E20019
:104FD00083FF25C08091E100877F8093E10082E01C
:104FE00080935A02109256028091E1008E7F809346
:104FF000E1008091E2008E7F8093E2008091E200E8
:1050000080618093E20042E060E080E00E944D26F3
:105010008091F00088608093F0000E94B123FF919E
:10502000EF91BF91AF919F918F917F916F915F9120
:105030004F913F912F910F900FBE0F901F90189599
:105040001F920F920FB60F9211242F933F934F93FD
:105050005F936F937F938F939F93AF93BF93CF9300
:10506000DF93EF93FF93C091E900CF708091EC0044
:10507000D82FD17080FDD0E81092E9008091F00027
:10508000877F8093F00078940E9464281092E90052
:105090008091F00088608093F000CD2BCF70C0939A
:1050A000E900FF91EF91DF91CF91BF91AF919F9177
:1050B0008F917F916F915F914F913F912F910F90C1
:1050C0000FBE0F901F9018951F93CF93DF93CDB70E
:1050D000DEB7AA970FB6F894DEBF0FBECDBFEBE5E3
:1050E000F2E088E08E0F9091F10091938E13FBCF48
:1050F0000E94C9238091E80083FF28C180915B0250
:1051000090915C02492F50E04A30510508F01EC1D1
:10511000FA01E556FF4F0C944B2D803821F0823870
:1051200009F014C108C08091570290915802992348
:1051300089F082600FC080915F028F70873008F025
:1051400005C18093E9008091EB0085FB882780F9F9
:105150001092E9009091E800977F9093E800809387
:10516000F1001092F100D0C0282F2D7F09F0EEC081
:10517000882319F0823061F0E9C080915D028130AE
:1051800009F0E4C0933009F080E0809358022EC00B
:1051900080915D0281112AC080915F028F702FEF94
:1051A000280F263008F0D2C08093E9002091EB0050
:1051B00020FF1CC0933021F48091EB00806214C06A
:1051C0009091EB0090619093EB0021E030E0A90119
:1051D00002C0440F551F8A95E2F74093EA001092EF
:1051E000EA008091EB0088608093EB001092E90068
:1051F0008091E800877F8093E8000E948226A6C005
:105200008111A4C010915D021F778091E300807826
:10521000812B8093E3008091E800877F8093E800F2
:105220000E9482268091E80080FFFCCF8091E300FD
:1052300080688093E300111102C082E001C083E026
:1052400080935A0283C08058823008F07FC08091DA
:105250005D0290915E028C3D53E0950779F583E005
:105260008A838AE289834FB7F894DE01139620E09F
:105270003EE051E2E32FF0E050935700E49120FF2D
:1052800003C0E295EF703F5FEF708E2F90E0EA3041
:1052900010F0C79601C0C0968D939D932F5F243167
:1052A00049F74FBF8091E800877F8093E8006AE26A
:1052B00070E0CE0101960E94892515C060915F02C1
:1052C00070916002AE014F5F5F4F0E94B824BC0135
:1052D000892BE1F19091E800977F9093E800898114
:1052E0009A810E94EC258091E8008B778093E800FA
:1052F0002DC0803859F58091E800877F8093E800C1
:10530000809156028093F1008091E8008E7773CFF0
:1053100081111CC090915D029230C0F48091E80030
:10532000877F8093E800909356020E9482268091A6
:105330005602811106C08091E30087FD02C081E022
:1053400001C084E080935A020E94B5238091E80056
:1053500083FF0AC08091E800877F8093E8008091F6
:10536000EB0080628093EB00AA960FB6F894DEBF44
:105370000FBECDBFDF91CF911F9108950895CF93B8
:1053800080915A028823A1F0C091E900CF709091DA
:10539000EC00892F817090FD80E8C82B1092E90005
:1053A0008091E80083FD0E946428CF70C093E900DB
:1053B000CF9108955058BB27AA270E94F2290C9438
:1053C0009D2B0E948F2B38F00E94962B20F039F4F1
:1053D0009F3F19F426F40C94652B0EF4E095E7FB3F
:1053E0000C945F2BE92F0E94AE2B58F3BA1762077B
:1053F00073078407950720F079F4A6F50C94D02B59
:105400000EF4E0950B2EBA2FA02D0B01B9019001DF
:105410000C01CA01A0011124FF27591B99F0593F23
:1054200050F4503E68F11A16F040A22F232F342F6B
:105430004427585FF3CF469537952795A795F040B9
:105440005395C9F77EF41F16BA0B620B730B840BCE
:10545000BAF09150A1F0FF0FBB1F661F771F881F86
:10546000C2F70EC0BA0F621F731F841F48F48795DE
:1054700077956795B795F7959E3F08F0B0CF9395D0
:10548000880F08F09927EE0F9795879508950E9449
:105490005B2A0C949D2B0E94962B58F00E948F2B18
:1054A00040F029F45F3F29F00C945F2B51110C94CC
:1054B000D12B0C94652B0E94AE2B68F39923B1F38A
:1054C000552391F3951B550BBB27AA27621773072A
:1054D000840738F09F5F5F4F220F331F441FAA1FBE
:1054E000A9F335D00E2E3AF0E0E832D0915050407A
:1054F000E695001CCAF72BD0FE2F29D0660F771F28
:10550000881FBB1F261737074807AB07B0E809F00D
:10551000BB0B802DBF01FF2793585F4F3AF09E3F92
:10552000510578F00C945F2B0C94D12B5F3FE4F382
:10553000983ED4F3869577956795B795F7959F5FD5
:10554000C9F7880F911D9695879597F90895E1E021
:10555000660F771F881FBB1F621773078407BA0780
:1055600020F0621B730B840BBA0BEE1F88F7E095DB
:10557000089529F416F00C945F2B0C94D02B0C9406
:10558000652B0E94B62BA8F39638A0F707F80F9268
:10559000E8942BE33AEA48EB5FE70E94632C0F9212
:1055A0000F920F924DB75EB70F920E94192CEAE44A
:1055B000F1E00E94682B4F915F91EF91FF91E5958B
:1055C000EE1FFF1F49F0FE57E0684427EE0F441F0F
:1055D000FA95E1F74195550B0E94E32B0F9007FEDA
:1055E0000C94D72B08950E94B62B88F09F5798F003
:1055F000B92F9927B751B0F0E1F0660F771F881FD8
:10560000991F1AF0BA95C9F714C0B13091F00E94F1
:10561000D02BB1E008950C94D02B672F782F8827DA
:10562000B85F39F0B93FCCF3869577956795B39518
:10563000D9F73EF490958095709561957F4F8F4F87
:105640009F4F0895E89409C097FB3EF4909580958C
:10565000709561957F4F8F4F9F4F9923A9F0F92F38
:1056600096E9BB279395F695879577956795B795B6
:10567000F111F8CFFAF4BB0F11F460FF1BC06F5F9C
:105680007F4F8F4F9F4F16C0882311F096E911C0AE
:10569000772321F09EE8872F762F05C0662371F0CF
:1056A00096E8862F70E060E02AF09A95660F771FE3
:1056B000881FDAF7880F9695879597F9089597F9D7
:1056C0009F6780E870E060E008959FEF80EC0895A8
:1056D000DF93CF931F930F93FF92EF92DF927B01A3
:1056E0008C01689406C0DA2EEF010E94602CFE0146
:1056F000E894A5912591359145915591A6F3EF0137
:105700000E94F229FE019701A801DA9469F7DF905F
:10571000EF90FF900F911F91CF91DF91089500249A
:105720000A941616170618060906089500240A9406
:1057300012161306140605060895092E0394000C8C
:1057400011F4882352F0BB0F40F4BF2B11F460FF1B
:1057500004C06F5F7F4F8F4F9F4F089557FD905844
:10576000440F551F59F05F3F71F04795880F97FB25
:10577000991F61F09F3F79F08795089512161306DF
:105780001406551FF2CF4695F1DF08C0161617060E
:105790001806991FF1CF8695710561050894089543
:1057A000E894BB2766277727CB0197F908959B01DB
:1057B000AC0160E070E080E89FE30C94472A0C9411
:1057C0005F2B0C94C22C0E94B62BD8F39923C9F3FB
:1057D000940F511DA3F39150504094F059F0882339
:1057E00032F0660F771F881F91505040C1F79E3FDF
:1057F00051052CF7880F911D9695879597F9089577
:105800005F3FACF0983E9CF0BB27869577956795F7
:10581000B79508F4B1609395C1F7BB0F58F711F431
:1058200060FFE8CF6F5F7F4F8F4F9F4FE3CF0C94A8
:10583000D12BFA01DC01AA0FBB1F9B01AC01BF57A2
:1058400028F4222733274427507820C0B75190F4FA
:10585000AB2F0024469537952795011CA395D2F3CD
:10586000002071F0220F331F441FB395DAF30ED0DE
:105870000C94DA2961307105A0E88A07B94630F442
:105880009B01AC016627772788279078309621F016
:10589000208331834283538308950E94602C0C94AB
:1058A0009D2B0E948F2B38F00E94962B20F0952381
:1058B00011F00C945F2B0C94652B11240C94D12BBC
:1058C0000E94AE2B70F3959FC1F3950F50E0551FCA
:1058D000629FF001729FBB27F00DB11D639FAA2745
:1058E000F00DB11DAA1F649F6627B00DA11D661F94
:1058F000829F2227B00DA11D621F739FB00DA11DB5
:10590000621F839FA00D611D221F749F3327A00D6E
:10591000611D231F849F600D211D822F762F6A2F0A
:1059200011249F5750409AF0F1F088234AF0EE0F6F
:10593000FF1FBB1F661F771F881F91505040A9F79C
:105940009E3F510580F00C945F2B0C94D12B5F3F50
:10595000E4F3983ED4F3869577956795B795F795D8
:10596000E7959F5FC1F7FE2B880F911D9695879550
:1059700097F908959F930E94D22C0F9007FCEE5F39
:105980000C94FB2C9F3F31F0915020F48795779534
:105990006795B795880F911D9695879597F9089506
:1059A0000C94652B0E94B62BD8F3E894E0E0BB275B
:1059B0009F57F0F02AED3FE049EC06C0EE0FBB0F19
:1059C000661F771F881F28F0B23A620773078407A3
:1059D00028F0B25A620B730B840BE3959A9572F719
:1059E000803830F49A95BB0F661F771F881FD2F757
:1059F00090480C94C42CEF93E0FF07C0A2EA2AED74
:105A00003FE049EC5FEB0E94F2290E949D2B0F9032
:105A1000039401FC9058E2E7F1E00C940F2D9F9362
:105A20008F937F936F93FF93EF939B01AC010E9441
:105A30004D2CEF91FF910E94682B2F913F914F9138
:105A40005F910C944D2CAA1BBB1B51E107C0AA1FF0
:105A5000BB1FA617B70710F0A61BB70B881F991F0F
:105A60005A95A9F780959095BC01CD01089597FBB3
:105A7000072E16F4009407D077FD09D00E94232D3D
:105A800007FC05D03EF4909581959F4F0895709541
:105A900061957F4F0895EE0FFF1F0590F491E02D63
:105AA0000994F999FECF92BD81BDF89A992780B5E6
:105AB0000895A6E1B0E044E050E00C948B2DA8E1FD
:105AC000B0E042E050E00C948B2D262FF999FECFE8
:105AD00092BD81BDF89A019700B4021639F01FBA41
