:100000000C941D030C9464030C9464030C9464031B
:100010000C9464030C9464030C9464030C946403C4
:100020000C9464030C9464030C94C81E0C949B1FE2
:100030000C9459150C9464030C9464030C9464039D
:100040000C9464030C9464030C9464030C94640394
:100050000C9464030C94BA150C9464030C9464031C
:100060000C9464030C9464030C9464030C94640374
:100070000C9464030C9464030C9464030C94640364
:100080000C9464030C9464030C9464030C94640354
:100090000C9464030C9464030C9464030C94640344
:1000A0000C9464030C9464030C94640301280228E8
:1000B00074FA01E1011E021E02E1011002100108A2
:1000C0000208011102110118021801280228001467
:1000D000411A000800150017001C0018000C00123F
:1000E00000130004001600070009000A000B000DB1
:1000F000000E000F0028001D001B00060019002A3A
:10010000002C02050011001000290000000052021E
:1001100052035200000000000000000000007000C8
:1001200000000000000000000000000000000000CF
:1001300000000000000000000000000000000000BF
:10014000000000000000001D011E002100240050DE
:100150000051023D0001003B000451E2001F00225B
:100160000025004F0052023F0001004300E1002C37
:100170000020002300260027003A00400001004430
:100180000029003A003D004000430000002B621EA1
:10019000023502350004513B003E0041004400009E
:1001A00000000000300000310000003C003F004231
:1001B00000450000000000000000000000000001F9
:1001C0000001000100010001000100010001000127
:1001D0000001000100010001000100010001000117
:1001E00000010001000152010001000100010001B5
:1001F00000010001000100010001000100010001F7
:1002000000010001000100010001000100010001E6
:1002100000010001000100010001000100010001D6
:1002200000010001000100010001000100010001C6
:100480000001000100010001000100010001001253
:10049000036B006500790062006F00610072006408
:1004A000000000160371006D006B006200750069AA
:1004B000006C006400650072000000040309040978
:1004C000026D00040100A0FA09040000010301010B
:1004D00000092111010001224000070581030800E5
:1004E0000A090401000103010200092111010001B0
:1004F000224D000705820308000A090402000103D7
:1005000000000009211101000122360007058303C4
:1005100008000A0904030001030000000921110179
:100520000001223900070584032000011201100197
:1005300000000008EDFE60600100010200010501FD
:100540000906A101050719E029E71500250195080D
:1005500075018102050819012905950575019102AA
:100560009501750391010507190029F7150025016B
:1005700095F875018102C005010980A10185021667
:1005800001002603001A81002A830075109501815D
:1005900000C0050C0901A1018503160100269C027B
:1005A0001A01002A9C02751095018100C0050109FD
:1005B00002A1010901A1000509190129051500255C
:1005C00001950575018102950175038101050109F8
:1005D0003009311581257F95027508810609381586
:1005E00081257F950175088106050C0A3802158161
:1005F000257F950175088106C0C005010906A10186
:10060000050719E029E71500250195087501810204
:1006100095017508810105081901290595057501E0
:1006200091029501750391010507190029FF150035
:1006300026FF00950675088100C011241FBECFEF6C
:10064000DAE0DEBFCDBF04B603FE27C080911802FA
:1006500090911902A0911A02B0911B028730904B21
:10066000A740B04BD1F410921802109219021092C8
:100670001A0210921B0214BE84B7877F84BF0FB684
:10068000F894A89580916000886180936000109232
:1006900060000FBEE0E0F8E3099511E0A0E0B1E0F2
:1006A000E0E1F6E402C005900D92A233B107D9F75C
:1006B00022E0A2E3B1E001C01D92A831B207E1F748
:1006C0000E941E1C0C94DA220C940000FC016111A3
:1006D00006C08281882319F08CEA90E0089590E0AA
:1006E00080E008950895089581E0089580FF07C08F
:1006F000559A5D9881FF05C0209A289808955598CD
:10070000F8CF2098FACF81E008950C9474030E94EA
:10071000960D2FEF84E39CE0215080409040E1F75C
:1007200000C000000C94DD15EF92FF920F931F9311
:10073000CF93DF938C01FC01E080F18080915D011B
:10074000811140C082818823C1F1C7010E941D131D
:10075000C82F682FC7010E94C412B7018C2F0E94B6
:10076000F704EC01B8010E948503882309F44BC00B
:10077000B801CE010E942F07882309F444C0C53177
:10078000F0E7DF0720F5C23080E7D80708F04DC05A
:10079000C115E0E7DE0791F1C130D047E1F181E01A
:1007A0008093340180933501C801DF91CF911F916F
:1007B0000F91FF90EF900C948303C7010E94F312F6
:1007C000C82FCBCFC7010E941D13B701C8CFCC33B0
:1007D00080E7D80709F49BC0CD33D04701F7F80173
:1007E0008281882309F4BAC0109235010E948915CC
:1007F000909333018093320180E296C0F8018281A8
:1008000081110E94870380E0DF91CF911F910F91AA
:10081000FF90EF900895F80182818823A1F38091E1
:10082000D70181608093D701EECFF80182818823C0
:1008300009F4BACF0E94DD14811102C00E94BE14D7
:100840000E94FA1490E09093090280930802FE013E
:10085000E350F047809108028160E231F10538F4FD
:10086000E452FD4D0C948A228091080282608093AC
:100870000802809108020E94FE140E94960DC3CFC8
:10088000809108028460F3CF809108028860EFCFE6
:10089000809108028061EBCF809108028062E7CFEF
:1008A000809108028064E3CF809108028068DFCFE6
:1008B000809108028C60DBCF809108028E7FD7CFB9
:1008C000809108028D7FD3CF809108028B7FCFCF9C
:1008D00080910802877FCBCF809108028F7EC7CF9F
:1008E000809108028F7DC3CF809108028F7BBFCF9C
:1008F000809108028F77BBCF80910802837FB7CFAA
:1009000090910802892F97FB87F98058B0CFF801A2
:100910008281882361F0109234010E94891590939E
:1009200033018093320182E00E94DB0A6CCF809118
:10093000340181110FC080913201909133010E94E6
:100940009515883C910530F486E20E94B00986E254
:100950000E948C0A82E00E94E20A55CF8091350104
:1009600081110FC080913201909133010E94951541
:10097000883C910530F487E20E94B00987E20E942A
:100980008C0A80E2E8CF0C948007259A2D988FEF8F
:100990009FEF909387008093860082E88093800089
:1009A00089E1809381000C94E1190E94C5040C94A4
:1009B0007E072D9881110AC0809180008F778093E7
:1009C0008000109289001092880008958091800024
:1009D0008068809380008FEF9FEF909389008093D1
:1009E000880008950C9476030C94F2040895972FD0
:1009F00070E026E0929F600D711D1124FB019EE1C5
:100A0000899FE00DF11D1124EE0FFF1FE153FF4FF1
:100A1000859194910895FC01EE0FFF1FE157FB4F64
:100A20008591949108950E94F7040E94B3069C0159
:100A3000211581E5380708F046C0211590E53907F2
:100A400008F00CC1283E310518F5203E3105C8F5E7
:100A5000283A310578F4253A310508F097C021305D
:100A6000310579F1C9010497813A910550F130E0DF
:100A700020E027C02D3B310508F493C0C901805CFC
:100A800091098032910598F70E940B059C0119C0CD
:100A9000211580E3380770F4211590E2390708F03A
:100AA000D7C02F3F310509F060F4203F3105F8F23F
:100AB000306507C0211580E4380708F4CCC03F70CA
:100AC000306AC9010895211590E73907C8F5211545
:100AD00080E6380708F0FAC0211594E53907F0F4EC
:100AE000211583E5380708F0D8C0211592E53907AC
:100AF00008F4CEC0C9018370992741E050E002C0DC
:100B0000440F551F8A95E2F72695269580E2289F87
:100B100090011124242B352B3C68D3CF211595E56A
:100B2000390708F4CEC0C90195558F3F910511F0E2
:100B300008F09DCF322F222722273F713062C1CF8C
:100B4000213380E7380709F4C3C0A0F4203380E7DD
:100B5000380748F4203290E7390708F488CF20524C
:100B60003047346DAECF2033304709F080CF20E0DE
:100B700031EDA7CF223390E7390709F4ACC0233316
:100B8000304709F074CF20E033ED9BCF253A310593
:100B900009F4A4C0263A310509F0A3C022E830E4E4
:100BA00090CF283A310509F49FC0293A310509F45C
:100BB0009EC02A3A310509F49DC02B3A310509F44B
:100BC0009CC02C3A310509F49BC02B3B310509F43C
:100BD0009AC02C3B310509F499C02D3A310509F42E
:100BE00098C0203B310509F497C02E3A310509F42D
:100BF00096C02F3A310509F495C0213B310509F41F
:100C000094C0223B310509F493C0233B310509F41C
:100C100092C0243B310509F491C0253B310509F40C
:100C200090C0263B310509F48FC0273B310509F4FC
:100C30008EC0283B310509F48DC0293B310509F4EC
:100C40008CC02A3B310509F48BC020E034E439CF55
:100C5000C9019F7019CF3327306C33CFC90154E0DD
:100C6000969587955A95E1F78370422F469546955C
:100C7000437090E2499FA0011124582B822F83706A
:100C800021E030E002C0220F331F8A95E2F742CF05
:100C9000322F2227216F306A14CFC9018370992720
:100CA00041E050E002C0440F551F8A95E2F72695B7
:100CB000269580E2289F90011124242B352B3A6839
:100CC00000CF322F2227246F306AFBCE3F7036CF01
:100CD00020E030EDF6CE20E032EDF3CE21E830E436
:100CE000F0CE23E830E4EDCE22EE34E4EACE29EE75
:100CF00034E4E7CE2AEE34E4E4CE25EB34E4E1CE6E
:100D000026EB34E4DECE23EB34E4DBCE24EB34E418
:100D1000D8CE27EB34E4D5CE2CEC34E4D2CE2DEC77
:100D200034E4CFCE23E835E4CCCE2AE835E4C9CE8E
:100D300022E935E4C6CE24E935E4C3CE21E236E427
:100D4000C0CE23E236E4BDCE24E236E4BACE25E2BC
:100D500036E4B7CE26E236E4B4CE27E236E4B1CEAE
:100D60002AE236E4AECE803E910581F1C8F48133AB
:100D7000910509F462C048F48932910509F456C01E
:100D80008A32910509F460C0089589339105B9F05C
:100D900082389105A1F08533910509F440C008958A
:100DA000863E910561F138F4823E9105B1F0833EB3
:100DB0009105E1F00895873E910551F10895209144
:100DC00008022370D9F080EE90E008952091080287
:100DD00020FF14C089E390E008952091080222FFCB
:100DE0000DC024FD09C083EE90E008952091080213
:100DF00022FD31C024FF02C090E080E008952091E0
:100E0000080223FFFBCF24FDF7CF87EE90E0089583
:100E10002091080223FFEECF86EE90E00895209106
:100E2000080225FFEBCF89E290E0089520910802A7
:100E300025FFE4CF85E390E008952091080226FF86
:100E4000DDCF8AE290E008952091080226FFD6CFF8
:100E500081E390E0089582EE90E0089508950F9365
:100E60001F93CF938C01FB018281811106C0C1E0E9
:100E70008C2FCF911F910F910895C0914301C11103
:100E800025C00531104799F70E942E0781E0809315
:100E900043010E9489159093420180934101109271
:100EA0003601109238011092370110923A011092D7
:100EB000390110923C0110923B0110923E011092B8
:100EC0003D011092400110923F01D2CF809141012B
:100ED000909142010E949515883C910540F68091C1
:100EE0003601E82FF0E0EE0FFF1FE95CFE4F1183A3
:100EF00000838F5F80933601C0E0BACF0C947203F9
:100F00000C947303CF93DF9385B7806885BF85B753
:100F1000806885BFA9E1B1E04EE151E0C1E0D0E0D9
:100F20008D91E82FE295EF70F0E061A18F709E0146
:100F300001C0220F8A95EAF7922F9095962391A3EC
:100F400082A1822B82A34A175B0751F7A3E1B1E08C
:100F500061E070E08D91E82FE295EF70F0E041A143
:100F60008F709B0101C0220F8A95EAF7922F90950E
:100F7000942391A382A1822B82A381E0A931B80797
:100F800049F7109249011092440110924A011092BF
:100F9000450110924B011092460110924C011092A3
:100FA000470110924D0110924801DF91CF910C94AE
:100FB000D5046F927F928F929F92AF92BF92CF9201
:100FC000DF92EF92FF920F931F93CF93DF9334E45E
:100FD000632E31E0732E49E1E42E41E0F42E01E06E
:100FE00010E0DD24D394E301C9903E01DE011E929E
:100FF000F70181917F01E82FE295EF70F0E091A178
:101000008F70A80101C0440F8A95EAF7892F842BBD
:1010100081A382A1842E8094882182A380EA8A956C
:10102000F1F763E171E090E080E0EB013991BE01FE
:10103000A32EA2942FE0A222B12CE50128A19C901E
:101040003F70580101C0AA0C3A95EAF7A22220E0AD
:1010500031F4202F082E01C0220F0A94EAF7292923
:101060002C9301968630910501F781A1882181A3F7
:1010700082A1482B42A38C91C81641F0D0924E0118
:101080000E9489159093500180934F01D9E46D1609
:10109000D1E07D0609F0A7CF80914E018823F1F0C1
:1010A00080914F01909150010E9495150697B0F0E4
:1010B00080914401809349018091450180934A01C8
:1010C0008091460180934B018091470180934C01B0
:1010D0008091480180934D0110924E010E94C304FB
:1010E00081E0DF91CF911F910F91FF90EF90DF9002
:1010F000CF90BF90AF909F908F907F906F9008950A
:10110000E82FF0E0E75BFE4F80810895089590930B
:101110005601809355010895E0915501F0915601D3
:10112000309721F00190F081E02D099480E008953E
:10113000E0915501F0915601309721F00280F38142
:10114000E02D09940895E0915501F09156013097F2
:1011500021F00480F581E02D099408952091530138
:10116000309154012817390771F0909354018093FE
:101170005301E0915501F0915601309721F006801E
:10118000F781E02D09940895209151013091520189
:101190002817390771F09093520180935101E09123
:1011A0005501F0915601309721F00084F185E02D32
:1011B0000994089508950C94DA080E9480150E94FD
:1011C00082070E9442160C94E119BF92CF92DF92DF
:1011D000EF92FF920F931F93CF93DF9300D000D035
:1011E0000F92CDB7DEB70E94D90788E5C82E81E0FF
:1011F000D82E10E000E0E02E802F0E948008B82E4C
:10120000F601F1906F01F81609F45BC08091D701E7
:1012100081FD0E94860830E020E0FB244F2D50E045
:10122000922FBA01022E02C0759567950A94E2F7D3
:1012300060FF41C02983EA8221E030E0790102C0E9
:10124000EE0CFF1C9A95E2F72B2D30E02E213F216A
:1012500081E0232B09F480E08B830E948915816053
:10126000782F9D838C8349815A816B818D810E9467
:101270008709F801E85AFE4F80818E2580830E94FD
:10128000EF180E948C0890915701891789F10E94EC
:101290008C08809357010F900F900F900F900F9034
:1012A000DF91CF911F910F91FF90EF90DF90CF9042
:1012B000BF900C94F4042F5F3F4F2630310509F0A6
:1012C000AFCF0F5F1F4F0530110509F094CF8FEF9F
:1012D00089838A831B820E9489158160782F9D8370
:1012E0008C8349815A816B818D810E948709C7CF88
:1012F0000F900F900F900F900F90DF91CF911F9153
:101300000F91FF90EF90DF90CF90BF900895CF9313
:10131000DF93CDB7DEB72B970FB6F894DEBF0FBEC5
:10132000CDBF4F83588769877A878B871E8285E078
:10133000FE013796DE01119601900D928A95E1F734
:1013400049815A816B817C818D819E812B960FB65C
:10135000F894DEBF0FBECDBFDF91CF910C941E106D
:10136000882309F4D8C0823871F40E948C0881FD6A
:10137000D2C089E30E94C5130E948F1489E30E94A2
:1013800002140C948F14833859F40E948C0880FD49
:10139000C2C083E50E94C5130E948F1483E5EFCF7E
:1013A000843859F40E948C0882FDB5C087E40E94FD
:1013B000C5130E948F1487E4E2CF9CEF980F913AF7
:1013C00018F40E94C513DDCF90E2980F983050F4C6
:1013D000877091E001C0990F8A95EAF7892F0E94E2
:1013E0004614CFCF9BE5980F933070F4853A31F0D7
:1013F000863A39F083E890E00C94AE0881E890E0FA
:10140000FBCF82E890E0F8CF98E5980F953108F08F
:1014100082C0883A09F440C0893A09F440C08A3A47
:1014200009F440C08B3A09F440C08C3A09F440C03A
:101430008B3B09F440C08C3B09F440C08D3A09F461
:1014400040C0803B09F440C08E3A09F440C08F3A56
:1014500009F440C0813B09F440C0823B09F440C01C
:10146000833B09F440C0843B09F440C0853B09F448
:1014700040C0863B09F440C0873B09F440C0883B2C
:1014800009F440C0893B09F440C08A3B09F440C0DC
:1014900090E080E00C94C40882EE90E0FBCF89EEEF
:1014A00090E0F8CF8AEE90E0F5CF85EB90E0F2CFB8
:1014B00086EB90E0EFCF83EB90E0ECCF84EB90E015
:1014C000E9CF87EB90E0E6CF8CEC90E0E3CF8DECBA
:1014D00090E0E0CF83E891E0DDCF8AE891E0DACFD9
:1014E00082E991E0D7CF84E991E0D4CF81E292E024
:1014F000D1CF83E292E0CECF84E292E0CBCF85E2FF
:1015000092E0C8CF86E292E0C5CF87E292E0C2CFF8
:101510008AE292E0BFCF0895882309F44BC0823855
:1015200071F40E948C0881FF45C089E30E94C513B5
:101530000E948F1489E30E9402140C948F14833844
:1015400059F40E948C0880FF35C083E50E94C513C2
:101550000E948F1483E5EFCF843859F40E948C08E1
:1015600082FF28C087E40E94C5130E948F1487E47D
:10157000E2CF9CEF980F913AF0F290E2980F9830FA
:1015800050F4877091E001C0990F8A95EAF7892F8E
:101590000E944C14D2CF9BE5980F933020F490E03A
:1015A00080E00C94AE08885A853120F490E080E009
:1015B0000C94C4080895882321F00E9446140C94CA
:1015C0008F140895882321F00E944C140C948F14DA
:1015D00008958F929F92AF92BF92DF92EF92FF9207
:1015E0000F931F93CF93DF9300D000D00F92CDB70E
:1015F000DEB77C016D837983FC01058102950F7054
:10160000128111110E9465140E94BE13D82E8823E6
:1016100071F01123A1F08D81805E883080F082E02E
:101620000E94A8130E94BE1391E0D82ED926E9810A
:10163000E295EF70F0E0E251FD4D0C948A22D12C3E
:10164000F6CF09810F70F981F07F11F00295007FCC
:101650001123B1F0002361F08D81805E883018F095
:101660002D81211109C0802F0E9446140E948F14E1
:101670008D810E94B00915C0802F0E945714F6CFAB
:101680008D810E948C0A002361F08D81805E8830FC
:1016900018F03D81311129C0802F0E944C140E9406
:1016A0008F14DD2009F4F3C10E949B1380FDEFC16C
:1016B000F70112820E9495130E94DC11C7010E945B
:1016C000580D0E9495130F900F900F900F900F9050
:1016D000DF91CF911F910F91FF90EF90DF90BF901E
:1016E000AF909F908F900C94FE11802F0E945D14FC
:1016F000D6CF49814F70B42E5981507F503219F0A6
:10170000B29480EFB8228D81882369F0813029F16D
:10171000112369F1002359F0F701858180FFA8CFDB
:101720008F70858304C0112361F0011104C08B2DDB
:101730000E94DB0AB6CF8B2D0130D1F70E947914BD
:10174000B0CF011106C00E947C148B2D0E94E20ACA
:10175000A8CF013009F4A5CFF6CF112321F0063030
:1017600008F09FCFE4CF053008F09BCFEECF0023E9
:1017700061F38D810E948C0A94CF8981869586952C
:10178000837069F0813009F08CCF8D8199819370DD
:10179000111102C090E080E00E94C40882CF8D81C8
:1017A00099819370111102C090E080E00E94AE0810
:1017B00078CF8D81112329F00E94FD170E94E41833
:1017C00070CF0E946518FACF8981837009F05FC0DD
:1017D000111167CF2D81229526952770220F220F98
:1017E0008D818F7090E0B0E0A0E04C015D01022E91
:1017F00004C0880C991CAA1CBB1C0A94D2F7FD815A
:1018000060E070E0CB01F4FF0FC06FE070E080E0BB
:1018100090E004C0660F771F881F991F2A95D2F7A2
:1018200060957095809590952981269526952370D1
:101830002D832230B1F0233019F19B01AC0128290E
:1018400039294A295B2929833A834B835C833D816B
:1018500069817A818B819C813130B1F00E9469115C
:1018600020CF9B01AC01282939294A295B292983EA
:101870003A834B835C83CA01B9010E94931111CF53
:101880000E946911C501B4010E943F110ACF8695DB
:10189000112311F089818170882309F402CF2D81F1
:1018A000229526952770220F220F8D818F7090E050
:1018B000B0E0A0E04C015D01022E04C0880C991C30
:1018C000AA1CBB1C0A94D2F73D8160E070E0CB01FA
:1018D00034FF0FC06FE070E080E090E004C0660F5E
:1018E000771F881F991F2A95D2F76095709580956C
:1018F000909549814695469543704D834230B1F0AD
:10190000433019F19B01AC01282939294A295B2967
:1019100029833A834B835C833D8169817A818B8102
:101920009C813130B1F00E946F12BBCE9B01AC01A3
:10193000282939294A295B2929833A834B835C83E7
:10194000CA01B9010E949912ACCE0E946F12C50162
:10195000B4010E944512A5CE3D81323F09F447C033
:1019600080F4303F79F1313FD9F1832F805E8031AF
:10197000D0F0112309F456C001117ACE89818F71FC
:1019800033C04D81433FD1F1443F99F7112309F40E
:101990003FC089818F7189830E94DC1163E0898156
:1019A0000E949F137ECE5D815F705D8389818F7100
:1019B000112321F00E94DC118D81BACE0E94FE110C
:1019C0008D81C4CE112341F0053008F06ACE8981A3
:1019D0008F710E94231265CE063008F062CEF7CFD9
:1019E00089818F71112339F00E94DC115ACE8981CF
:1019F0008F711123C9F30E94FE1153CE112329F0D8
:101A000089818F710E94C7114CCE0E94BD1149CEB1
:101A100081E00E94A813023008F443CE82E00E94C5
:101A2000A8133FCE0111A5CE89818F71E4CF4981E2
:101A30004F706D81C7010E9466030E94B81031CEBD
:101A400011112FCEE981EF70E983E23099F028F48B
:101A5000E1110DC00E94F31924CEF981F33069F031
:101A6000F43009F01ECE8D810E944A1A1ACE0E94CF
:101A7000FF1917CE0E94181A14CE0E942C1A11CEEC
:101A800049814F706D81C7010E94F6040ACE0F9004
:101A90000F900F900F900F90DF91CF911F910F91AA
:101AA000FF90EF90DF90BF90AF909F908F90089540
:101AB0000F931F93CF93DF93EC018B819C81892B34
:101AC00029F08881998189238F3F29F4DF91CF9173
:101AD0001F910F910895CE010E9494038823B1F3C2
:101AE000688179818A810E946B138C010E94C312E4
:101AF0000E943411B801CE01DF91CF911F910F9157
:101B00000C94E90A0E9465140E9476140E9438140D
:101B10000E948F140E94D5190E94E41890E080E082
:101B20000E94AE0890E080E00C94C4080E94541417
:101B30000C94820D0E945F13282F892F82958F703D
:101B4000903C80F48A30B0F4843020F4823090F4F9
:101B500080E008958630E1F781E0203E88F0213F63
:101B6000B9F70EC08C3011F08F3091F793FB8827B6
:101B700080F9089581E0203F39F018F4203E40F7C5
:101B80000895243F29F7FCCF0895CF93DF9300D029
:101B900000D00F92CDB7DEB70F900F900F900F903F
:101BA0000F90DF91CF910895CF93DF9300D000D0B5
:101BB00000D0CDB7DEB726960FB6F894DEBF0FBEC5
:101BC000CDBFDF91CF9108951F93CF93DF93E09125
:101BD0005E0116E080915F018E1304C0DF91CF910A
:101BE0001F910895CE2FD0E01E9FF0011124E05ADE
:101BF000FE4F4081518162817381848195810E9471
:101C0000D40DFE013196E770E5CF409190015091DF
:101C10009101609192017091930180919401909152
:101C200095010C94D40D1F93CF93DF938091950170
:101C3000807FC1F4809192018823A1F080915E01A0
:101C4000C0915F0160919001709191014091930169
:101C500050919401D62FD723DA01A095B09516E0C4
:101C6000C81304C0DF91CF911F91089590E04115F2
:101C7000510511F0DF3F31F401968770F1CF2A0F43
:101C80003B1F17C0189FF001199FF00D1124E05A57
:101C9000FE4F21812713F0CF20812613EDCF228123
:101CA0002111EACF238134812417350740F3241B07
:101CB000350B283C310500F7209195012F702061EC
:101CC0002093950126E0289FF001299FF00D112413
:101CD000EB59FE4F80818F708061808380E991E0B5
:101CE0000E94580DDF91CF911F910C94E40D9F92AB
:101CF000AF92BF92CF92DF92EF92FF920F931F931A
:101D0000CF93DF93CDB7DEB72B970FB6F894DEBF36
:101D10000FBECDBF8C0185E0F801DE011796019062
:101D20000D928A95E1F7D8014C9111965C9111972B
:101D30001296EC90129780919301909194010097E4
:101D400009F46BC12091900130919101632F6223BE
:101D50006F3F09F462C11396CD90DC909090920190
:101D6000992009F4F8C0C816D90608F43FC0F60156
:101D7000E81BF90BCF01FF24F394883C910508F090
:101D8000F12C80E9A82E81E0B82E80919501982F42
:101D9000907FFF2009F4B7C0911180C0FE2C35134D
:101DA0002AC0241328C0E11026C08F708061809360
:101DB00095010E94050EC5010E94580D8091950164
:101DC000D80115968C938F2D2B960FB6F894DEBF05
:101DD0000FBECDBFDF91CF911F910F91FF90EF907C
:101DE000DF90CF90BF90AF909F9008958095909591
:101DF0008C0D9D1DC0CFCD2829F0842F85238F3FCA
:101E000009F019C180E0B82FB170DB2EE0915E01BE
:101E100020915F0136E080FD1CC0EE20A1F2809190
:101E20009501816080939501F12CCDCF8E2F90E0AC
:101E30003E9FF0011124E05AFE4F6181651306C0F8
:101E40006081641303C062816E11E7CFFC0131969B
:101E5000E770E213EBCF4F8358878F8198850E94FC
:101E60005F13292F22952F70903260F0225F2F7020
:101E7000223078F49F7051F0F8019581907F31F411
:101E8000D12C0AC09F7011F08823D1F3805E883076
:101E9000B8F3C8010E94580DFD2C95CF351306C02C
:101EA000241304C0D801EE2009F47BC04F83588767
:101EB0008F8198850E949A0D882309F4B8C0EE207E
:101EC00009F4B5C080919501803270F020919001A5
:101ED000309191013A8329831B82DD82CC828E83EB
:101EE000CE0101960E94580D86E0F801A0E9B1E00C
:101EF00001900D928A95E1F70E94130E0E94050E43
:101F0000FF24F39460CF911113C07C2DDB86CA8629
:101F10006E2D8B850E94C50D80E991E00E94580DC1
:101F200086E0F50111928A95E9F70E94050E4BCFE4
:101F30003513BCCF2413BACFE110B8CFD801159612
:101F40008C93C8010E94580D86E0F50111928A9584
:101F5000E9F7F92C38CFC816D90688F1B601681B05
:101F6000790BCB01F12C883C910508F047C0FE2C81
:101F7000EE2009F45CC0351330C024132EC08091CC
:101F8000950180FD21C0982F907FF1F0D801159622
:101F90008C931597903F39F0982F907F905F8F70BA
:101FA000892B15968C93C8010E94580D86E0F80184
:101FB000A0E9B1E001900D928A95E1F7B6CF809546
:101FC00090958C0D9D1DCECF86E0F801A0E9B1E083
:101FD00001900D928A95E1F7F6CE4F8358878F8155
:101FE00098850E949A0D81117FCF80919501816023
:101FF00080939501C8010E94580DE5CE7C2DDB86AB
:10200000CA866E2D8B850E94C50D86E0E0E9F1E061
:10201000DF011D928A95E9F788CFEE2041F04F83CA
:1020200058878F8198850E949A0D81115DCFC801D4
:102030000E94580D65CF81E08E25E5CE1F93CF938A
:10204000DF93CDB7DEB72C970FB6F894DEBF0FBE87
:10205000CDBF4F83588769877A878B879C87CE014E
:1020600007960E94770E882369F08A859B85892BC5
:1020700039F04F815885842F85238F3F09F071C037
:1020800016E05FC086E0FE013796DE0111960190F2
:102090000D928A95E1F78A859B85892B89F388853E
:1020A0009F8189238F3F61F320915F0130E0C90157
:1020B00001968770992740915E014817190671F4BF
:1020C0000E94960D10925F0110925E0186E0E0E999
:1020D000F1E0DF011D928A95E9F7D2CF96E0929F59
:1020E000D001939FB00D1124A05ABE4FFE0131962E
:1020F00001900D929A95E1F780935F010E94E40DA3
:10210000BFCF819FC0011124805A9E4F0E94770E3D
:102110008823E9F0E0915E011E9FF0011124E05A4E
:10212000FE4F4081518162817381848195810E943B
:10213000D40D80915E0190E001968770992780937D
:102140005E0180915E0190915F018913DACF2C9638
:102150000FB6F894DEBF0FBECDBFDF91CF911F91B8
:10216000089569857A858B859C850E94D40D88CFDA
:10217000EF92FF920F931F93CF93DF938C01892BE4
:1021800089F0F12CEE24E394E8012196F801849182
:10219000843709F457C0A0F4823009F43EC048F4F3
:1021A0008130D1F0DF91CF911F910F91FF90EF908F
:1021B00008959CEF980F9037A8F70E94B0090AC0C5
:1021C000853709F44CC09CE7980F903758F78F7704
:1021D0000E948C0A8E0116C00E5F1F4FFE01849173
:1021E00090E2980F983060F48770FE2D01C0FF0FC9
:1021F0008A95EAF78F2F0E9468140E948F1402C0FC
:102200000E94B0098F2D815008F4BECFEFE9FFE0A6
:102210003197F1F700C00000F6CF0E5F1F4FFE01AF
:10222000849190E2980F983050F48770FE2D01C091
:10223000FF0F8A95EAF78F2F0E946E14DECF0E945F
:102240008C0AE0CF0E5F1F4FFE01C491C150D0F247
:102250008FE99FE00197F1F700C00000F7CF0E5F14
:102260001F4FFE01F490CECF08956093AE0170939E
:10227000AF018093B0019093B1010C94820DCF9384
:10228000DF9300D000D0CDB7DEB769837A838B832C
:102290009C838091AE019091AF01A091B001B0916B
:1022A000B10129813A814B815C81822B932BA42B34
:1022B000B52B8093AE019093AF01A093B001B09382
:1022C000B1010F900F900F900F90DF91CF910C9470
:1022D000820DCF93DF9300D000D0CDB7DEB76983F6
:1022E0007A838B839C838091AE019091AF01A09102
:1022F000B001B091B10129813A814B815C81822387
:102300009323A423B5238093AE019093AF01A093B0
:10231000B001B093B1010F900F900F900F90DF912B
:10232000CF910C94820DCF93DF9300D000D0CDB726
:10233000DEB769837A838B839C838091AE01909111
:10234000AF01A091B001B091B10129813A814B81D7
:102350005C8182279327A427B5278093AE019093B1
:10236000AF01A093B001B093B1010F900F900F9007
:102370000F90DF91CF910C94820D1092AA011092D0
:10238000AB011092AC011092AD010C94820D41E0B2
:1023900050E060E070E004C0440F551F661F771FD7
:1023A0008A95D2F74093AA015093AB016093AC0198
:1023B0007093AD010C94820D282F81E090E0A0E095
:1023C000B0E004C0880F991FAA1FBB1F2A95D2F73F
:1023D0004091AA015091AB016091AC017091AD01A7
:1023E000842B952BA62BB72B8093AA019093AB013E
:1023F000A093AC01B093AD010C94820D41E050E08C
:1024000060E070E004C0440F551F661F771F8A9577
:10241000D2F740955095609570958091AA01909162
:10242000AB01A091AC01B091AD0184239523A6230B
:10243000B7238093AA019093AB01A093AC01B09312
:10244000AD010C94820D282F81E090E0A0E0B0E077
:1024500004C0880F991FAA1FBB1F2A95D2F740916D
:10246000AA015091AB016091AC017091AD0184273C
:102470009527A627B7278093AA019093AB01A09335
:10248000AC01B093AD010C94820DCF93DF9300D0DB
:1024900000D0CDB7DEB769837A838B839C8380912C
:1024A000AA019091AB01A091AC01B091AD0129813D
:1024B0003A814B815C81822B932BA42BB52B80938B
:1024C000AA019093AB01A093AC01B093AD010F9022
:1024D0000F900F900F90DF91CF910C94820DCF93BE
:1024E000DF9300D000D0CDB7DEB769837A838B83CA
:1024F0009C838091AA019091AB01A091AC01B09115
:10250000AD0129813A814B815C8182239323A423ED
:10251000B5238093AA019093AB01A093AC01B09333
:10252000AD010F900F900F900F90DF91CF910C9411
:10253000820DCF93DF9300D000D0CDB7DEB7698393
:102540007A838B839C838091AA019091AB01A091A7
:10255000AC01B091AD0129813A814B815C81822728
:102560009327A427B5278093AA019093AB01A0934A
:10257000AC01B093AD010F900F900F900F90DF91D1
:10258000CF910C94820D0895292F220FE22FE90F8D
:10259000EE0FE80F8E2F877041E001C0440F8A953F
:1025A000EAF7E695E695E69585E0E89FF0011124C7
:1025B000EA56FE4F30E020E070E05191DF011197C4
:1025C000CB01022E02C0969587950A94E2F781709E
:1025D00081958527842385278C932F5F3F4F253056
:1025E000310559F70895292F220FE22FE90FEE0F39
:1025F000E80F9E2F9770E695E695E69585E0E89FB3
:10260000F0011124EA56FE4F50E040E080E02191B5
:1026100030E0092E02C0369527950A94E2F7217022
:102620003327042E01C0220F0A94EAF7822B4F5F52
:102630005F4F4530510559F70895BF92CF92DF9211
:10264000EF92FF920F931F93CF93DF938C01C09073
:10265000AA01D090AB01E090AC01F090AD01809167
:10266000AE019091AF01A091B001B091B101C82A23
:10267000D92AEA2AFB2ACFE1D0E0BC2ED701C60135
:102680000C2E04C0B695A795979587950A94D2F716
:1026900080FD0EC0219788F7B12C8B2DDF91CF9153
:1026A0001F910F91FF90EF90DF90CF90BF90089512
:1026B000B8018C2F0E941305019761F3EECFCF93E1
:1026C000DF93D82FC92F0E941D136D2F7C2FDF9110
:1026D000CF910C9413051F93CF93DF93162FD72F11
:1026E00090915D01992339F0862F972FDF91CF913B
:1026F0001F910C945F13882391F0862F972F0E94CF
:102700001D13C82F682F812F9D2F0E94C412612F87
:102710007D2F8C2FDF91CF911F910C941305862F65
:10272000972F0E94F312C82FF2CF8091B2018595A6
:102730008595859508958091B2018770089598E0F8
:10274000899F90011124622B6093B2010C94DC11DB
:102750009091B201809589238093B201282F277030
:1027600061F4282F082E000C330B9217130629F062
:102770008595859585950C94FE1108959091B201EB
:10278000977081E009F480E00895909112019923F7
:10279000E1F09091080297FF18C0E82FE695E695C2
:1027A000E695EF3139F12091000130910101E20FFE
:1027B000F32FF11D877021E030E001C0220F8A95D0
:1027C000EAF78181822B8183089520910001309165
:1027D0000101F90132969FEF40E05191851751F0C8
:1027E0009F3F19F4511101C0942F4F5F4E31A9F74B
:1027F0009F3F09F40895290F311D97FD3A95F9017E
:102800008283089590911201992301F19091080219
:1028100097FF1CC0E82FE695E695E695EF3139F174
:102820002091000130910101E20FF32FF11D87701B
:1028300021E030E0A90102C0440F551F8A95E2F75C
:10284000CA01809591818923818308952091000197
:1028500030910101F9013296205E3F4F9191891329
:1028600003C0DF0111971C92E217F307B9F708952F
:1028700081E090E0E0910001F0910101E80FF91F83
:102880001082019680329105A9F708959091D601A2
:10289000982B9093D6010895982F90958091D6010A
:1028A00089238093D60108951092D60108959091BE
:1028B000D501982B9093D5010895982F90958091EC
:1028C000D50189238093D50108951092D5010895EB
:1028D0009091D401982B9093D4010895982F9095BE
:1028E0008091D40189238093D40108951092D4015A
:1028F00008958093B30108951092B3010895209133
:10290000000130910101F9013196205E3F4F80E0D6
:10291000919191118F5FE217F307D1F70895E0913C
:102920000001F09101018091D6018083E0910001C6
:10293000F091010180819091D501892B8083E091F4
:102940000001F091010180819091D401892B808355
:102950009091B301992361F0E0910001F0910101A0
:102960008081892B80830E947F1481111092B30192
:1029700080910001909101010C9498086DEE7EEF1A
:1029800090E080E00E94C42260E082E090E00E943B
:10299000B22260E083E090E00E94B22260E084E036
:1029A00090E00E94B22260E085E090E00E94B222B6
:1029B00060E086E090E00C94B22290E080E00E941B
:1029C000AC229C0181E02D3E3E4F09F080E008954D
:1029D00082E090E00C94A422682F82E090E00C94B6
:1029E000B22283E090E00C94A422682F83E090E070
:1029F0000C94B22284E090E00C94A422682F84E02E
:102A000090E00C94B22286E090E00C94A422682F0F
:102A100086E090E00C94B22280910F02843051F154
:102A20001092D80188E190E020E40FB6F894A895C0
:102A3000809360000FBE2093600080E00E94D90464
:102A400080E00E94F40483B7817F846083BF83B7F2
:102A5000816083BF7894889583B78E7F83BF0FB6DC
:102A6000F894A8958091600088618093600010922E
:102A700060000FBE089508950895CF930E943B15FE
:102A80000E94D9070E943C15C0E08C2F0E9480084C
:102A9000811105C0CF5FC530C1F7CF91089581E0A6
:102AA000FCCF0E94960D0E94E1190E948C080C94A4
:102AB000F4041F921FB61F9211248F939F93AF931C
:102AC000BF938091D801811113C08091040290912D
:102AD0000502A0910602B09107024196A11DB11D09
:102AE0008093040290930502A0930602B09307021C
:102AF000BF91AF919F918F911F901FBE1F9018950E
:102B000082E084BD93E095BD9AEF97BD80936E00FF
:102B100008952FB7F8948091040290910502A09136
:102B20000602B09107022FBF0895CF92DF92EF9275
:102B3000FF929C014FB7F894809104029091050296
:102B4000A0910602B09107024FBF6C017D01EE24F7
:102B5000FF24A90170E060E0C416D506E606F7067A
:102B600038F0821B930BFF90EF90DF90CF90089589
:102B70000197F7CF1F921FB61F9211248F939F9337
:102B8000AF93BF938091040290910502A091060239
:102B9000B09107020196A11DB11D8093040290938C
:102BA0000502A0930602B0930702BF91AF919F91D7
:102BB0008F911F901FBE1F9018950E944D1EF89474
:102BC0002FEF87EA91E6215080409040E1F700C066
:102BD000000087E090EBDC018093180290931902CB
:102BE000A0931A02B0931B0288E19CE00FB6F89400
:102BF000A895809360000FBE90936000FFCFCF92A6
:102C0000DF92EF92FF920F931F93CF93C0E0E82ED5
:102C1000F12C8C2F0E94800810E000E0C82ED12CEF
:102C2000C601002E02C0959587950A94E2F780FFB1
:102C300011C0602F7C2F80E00E94F704E816F9068F
:102C400049F481E0CF911F910F91FF90EF90DF90B9
:102C5000CF9008950F5F1F4F0630110509F7CF5F22
:102C6000C530B9F680E0EECFCF93C82F8CE20E943A
:102C7000FF15882321F08C2FCF910C94FF1580E055
:102C8000CF910895CF93DF9300D000D0CDB7DEB7BA
:102C90000E94DD14811102C00E94BE1495E6998342
:102CA00008C00E94D9078FE39CE90197F1F700C0A3
:102CB0000000A981A150A983A111F3CF89E20E944C
:102CC0003416811110C18AE20E94341681110E94CB
:102CD000BE1485E00E94341681110E94DD150E9409
:102CE000E8148093D70187E00E943416882371F09E
:102CF0008BE10E943416882309F4D1C09091D7014A
:102D0000892F8D7F91FF82608093D7018091D701B9
:102D10000E94EC140E94FA1490E0909309028093B0
:102D2000080280EE0E943416882341F09091080238
:102D3000892F8E7F90FF81608093080289E30E9433
:102D40003416882341F090910802892F8D7F91FFDE
:102D500082608093080282EE0E943416882341F03C
:102D600090910802892F8B7F92FF846080930802E4
:102D700086EE0E943416882341F090910802892F34
:102D8000877F93FF88608093080283EE0E94341649
:102D9000882341F090910802892F8F7E94FF8061F3
:102DA0008093080285E30E943416882341F09091B5
:102DB0000802892F8F7D95FF80628093080281E34E
:102DC0000E943416882341F090910802892F8F7B4E
:102DD00096FF80648093080281E10E943416882364
:102DE00041F090910802892F97FB87F980588093D2
:102DF0000802809108020E94FE1487E20E943416A5
:102E000089838EE10E943416882319F0B981B2605B
:102E1000B9838FE10E943416882319F02981246038
:102E2000298380E20E943416882319F039813860A2
:102E3000398381E20E943416882319F04981406168
:102E4000498382E20E943416882319F05981506226
:102E5000598383E20E943416882319F089818064A3
:102E6000898384E20E9434168823B1F199819068A5
:102E7000998389810E94F5143981232F30E050E035
:102E800040E029833A834B835C83CA01B9010F90E8
:102E90000F900F900F90DF91CF910C9435118EE031
:102EA0000E943416882339F09091D701892F8B7FA7
:102EB00092FF846029CF80E10E9434169091D7015F
:102EC000882329F0892F877F93FF88601DCF892F62
:102ED0008E7F90FF816018CFA981A111CACF0E9477
:102EE000F114282FCBCF0F900F900F900F90DF9100
:102EF000CF9108958091DB0180FF12C060910501A0
:102F000085E0689FB0011124759567957595679563
:102F100060387105A8F561157105A1F1862F089536
:102F200081FF09C06091050185E0689FB00111240F
:102F300075956795EDCF6091050182FD0AC080917E
:102F4000DC018823D1F0909104016091050189177B
:102F500028F085E0689FB0011124DACF869FB00188
:102F6000112485E0869F9001879F300D1124692FE1
:102F700070E0C9010E947622CBCF65E070E0CECF31
:102F80008FE7089581E008958091DB0180FF0CC0F8
:102F90006091030170E0759567957595679561156A
:102FA000710549F1862F089581FF06C060910301E4
:102FB00070E075956795F3CF6091030182FD0BC0BA
:102FC0009091DC019923A1F06091020180910301AD
:102FD000961738F0682F70E06038710500F38FE7BE
:102FE0000895899FC001112470E00E947622F4CFD9
:102FF00061E070E0D7CF81E00895803F31F40E9416
:103000007A1781958093DF010895813F19F40E941A
:103010007A17F8CF823F31F40E947A178195809316
:10302000DE010895833F19F40E947A17F8CF893F93
:1030300029F40E94C4178093E00108958A3F21F487
:103040000E94C4178195F7CF8B3F31F40E94C417BB
:1030500081958093E10108958C3F19F40E94C41773
:10306000F8CF843F31F48091DD0181608093DD01F0
:103070000895853F21F48091DD018260F7CF863F7E
:1030800021F48091DD018460F1CF873F21F48091AC
:10309000DD018860EBCF883F21F48091DD01806104
:1030A000E5CF8D3F31F48091DB0181608093DB01BE
:1030B00008958E3F21F48091DB018260F7CF8F3F2E
:1030C000B9F78091DB018460F1CF9091DE01803F00
:1030D00041F48091DF0187FD1092DF01992371F0A7
:1030E0000895813F29F48091DF011816ACF3F6CFE3
:1030F000823F81F497FFF2CF1092DE018091DF01D1
:103100009091E001892B9091E101892B49F7109270
:10311000DC010895833F19F4191674F3DFCF893F5A
:1031200039F48091E0011816CCF61092E001D6CF68
:103130008A3F29F48091E00187FFD0CFF6CF8B3F03
:1031400039F48091E10187FFC9CF1092E101C6CF28
:103150008C3F29F48091E1011816BCF3BFCF843F66
:1031600031F48091DD018E7F8093DD01B7CF853F03
:1031700021F48091DD018D7FF7CF863F21F480918E
:10318000DD018B7FF1CF873F21F48091DD01877FC7
:10319000EBCF883F21F48091DD018F7EE5CF8D3F1D
:1031A00031F48091DB018E7F8093DB0197CF8E3FDE
:1031B00021F48091DB018D7FF7CF8F3F09F08ECF17
:1031C0008091DB018B7FF0CF8DED91E00E94A30811
:1031D0000E9489159093DA018093D90108951F9375
:1031E000CF93DF9300D000D000D0CDB7DEB7809171
:1031F000D9019091DA010E949515AC018091DC0112
:103200002091060130E0811106C0209107019AE06B
:10321000299F900111244217530788F02091DE0165
:10322000A091DF01A9831091E001B091E101BE837B
:1032300021110FC09A2F912B9B2B09F0B2C026961B
:103240000FB6F894DEBF0FBECDBFDF91CF911F91B7
:1032500008958F3F19F08F5F8093DC01121624F4DC
:103260000E947A178093DE018091DE0187FF05C0FE
:103270000E947A1781958093DE012981121624F429
:103280000E947A178093DF018091DF0187FF05C0DC
:103290000E947A1781958093DF018091DE01882357
:1032A00009F455C03091DF013D83332309F44FC049
:1032B000282F880F330B440B550B29833A834B83FC
:1032C0005C83CA01B9010E947D2123E333E343E318
:1032D0005FE369837A838B839C8369817A818B81A5
:1032E0009C810E94E12169837A838B839C8369811D
:1032F0007A818B819C810E9445216093DE018D81C2
:10330000082E000C990BAA0BBB0B89839A83AB8305
:10331000BC83BC01CD010E947D2123E333E343E361
:103320005FE369837A838B839C8369817A818B8154
:103330009C810E94E12169837A838B839C836981CC
:103340007A818B819C810E9445216093DF01111657
:1033500024F40E94C4178093E0018091E00187FF6C
:1033600005C00E94C41781958093E0019E811916C3
:1033700024F40E94C4178093E1018091E10187FF4A
:1033800005C00E94C41781958093E10126960FB66F
:10339000F894DEBF0FBECDBFDF91CF911F910C948B
:1033A000E4188F3F09F057CF68CF85E0EDEDF1E0ED
:1033B000DF011D928A95E9F71092DC011092DB0182
:1033C00008950E94DD14811102C00E94BE140E9463
:1033D0000315982F80930A02817090FF02C0892FF5
:1033E00086950C94D90480910A02816080930A0228
:1033F0000E94071580910A0286950C94D904809149
:103400000A02982F9E7F79F0825080930A028E7F65
:1034100091E009F490E080910A0290FB80F980939A
:103420000A020E94071580910A0286950C94D9041D
:1034300090910A02892F8E7F90FF816080930A020B
:103440000E94071590910A02892F817090FF02C097
:10345000892F86950C94D90480910A028E5F8093FF
:103460000A02982F9E7F19F0817080930A02809142
:103470000A028E7F91E009F490E080910A0290FBAD
:1034800080F980930A020E94071580910A028695AE
:103490000C94D90490910A02292F26952827220FEF
:1034A0009170922B90930A029E7F21E009F420E014
:1034B00080910A0220FB80F980930A020E9407157E
:1034C00080910A0286950C94D90480910202089595
:1034D000CF93DF9300D00F92CDB7DEB720910F02CC
:1034E000243019F523E029838A839B832093E90004
:1034F0008FEF9091E800815095FD06C095ED9A956B
:10350000F1F700008111F5CF8091E80085FF0DC033
:1035100050E040E063E070E0CE0101960E94C51CDF
:103520008091E8008E778093E8000F900F900F90C5
:10353000DF91CF910895CF93DF9300D00F92CDB755
:10354000DEB79C0180910F02843031F582E08983DF
:10355000205831093B832A8383E08093E9008FEF71
:103560009091E800815095FD06C095ED9A95F1F790
:1035700000008111F5CF8091E80085FF0DC050E07B
:1035800040E063E070E0CE0101960E94C51C80918E
:10359000E8008E778093E8000F900F900F90DF91F6
:1035A000CF91089520910F022430F1F422E020936E
:1035B000E9002FEF3091E800215035FD06C035EDD0
:1035C0003A95F1F700002111F5CF2091E80025FF91
:1035D0000BC050E040E065E070E00E94C51C8091A7
:1035E000E8008E778093E8000895CF93DF93D82F7B
:1035F000C92F80910F028430F1F490911201992328
:10360000E9F09091080297FF19C08093E9008FEFCD
:103610009091E800815095FD06C095E19A95F1F7EB
:1036200000008111F5CF8091E80050E040E060E2B9
:1036300070E085FD1AC0DF91CF91089581E08093FD
:10364000E9008FEF9091E800815095FD06C095ED5F
:103650009A95F1F700008111F5CF8091E80085FF80
:10366000EACF50E040E068E070E08D2F9C2F0E9490
:10367000C51C8091E8008E778093E80080E2ED2FF2
:10368000FC2FA2EEB1E001900D928A95E1F7D3CF25
:1036900080910E02811109C00E944D1E0E94AA1E37
:1036A0008091E20084608093E200089510920E02FF
:1036B0000895089508950C94511542E061EC81E05D
:1036C0000E94C91D42E061EC82E00E94C91D42E0F7
:1036D00061EC83E00E94C91D42E261EC84E00C943D
:1036E000C91D80911102893089F148F4823009F4B2
:1036F00094C0833009F44FC0813041F008958A307E
:1037000009F47BC08B3009F461C0089580911002E8
:10371000813A09F03FC08091E800877F8093E800FC
:103720008091140290911502892B61F460E282EE7F
:1037300091E070E00E94141D8091E8008B778093E7
:10374000E800089560E090E080E0F3CF80911002FF
:10375000813201F58091140290911502009711F0C9
:103760000397C1F48091E800877F8093E8008091FF
:10377000E80082FF0BC08091F100809302028091EB
:10378000E8008B778093E8000C94FD1D80910F0278
:103790008111EDCF089580911002813AD9F780917F
:1037A000140290911502892BA9F78091E800877F78
:1037B0008093E8008091E80080FFFCCF80911201A7
:1037C0008093F1008091E8008E77DCCF8091100229
:1037D000813201F78091140290911502892BD1F664
:1037E0008091E800877F8093E8000E94FD1D809112
:1037F0001202809312010C94960D80911002813276
:1038000049F68091E800877F8093E8000E94FD1DC3
:103810008091130280930302089580911002813AEF
:1038200009F0B8CF8091E800877F8093E80080910D
:10383000E80080FFFCCF80910302C2CF84B7877F6E
:1038400084BF0FB6F894A89580916000886180933A
:103850006000109260000FBE80E8809361001092BB
:1038600061000E94DB080E944D1E0E94AA1E8091EA
:10387000E20084608093E20078940E942A210E94F2
:10388000DD0888E091E00E94870880910F02853072
:1038900019F00E94E508F9CF0E940C1580910D02E5
:1038A000882399F30E943D15882379F30E94AF1C69
:1038B000ECCF9C01DA01892F992783309105C1F063
:1038C00068F48130910509F445C0029761F48DE6F2
:1038D00090E02FEB34E02D933C93089581329105D5
:1038E000E1F0829739F190E080E030E020E0F3CF22
:1038F000C9019927213059F08230910559F0EBEB3D
:10390000F4E0892B81F7849190E09F01E4CFE3EA12
:10391000F4E0F9CFEFE8F4E0F6CF643020F7E62FDB
:10392000F0E0EE0FFF1FE65DFE4F2081318189E060
:1039300090E0D1CF6430B8F670E0FB01EE0FFF1FCE
:10394000EE5DFE4F20813181625E7E4FFB01808102
:1039500090E0C1CF82E190E02CE235E0BCCF80E185
:1039600089BD82E189BD09B400FEFDCF8091D800F8
:103970008F7D8093D8008091E00082608093E0008A
:103980008091E00081FDFCCF0895AF92BF92CF926D
:10399000DF92FF920F931F93CF93DF936C01EB01A4
:1039A0008A010E941C1EF82E811123C001151105E9
:1039B00039F0F80180819181C81BD90BC80ED91E3E
:1039C000B12CA12C2097A9F08091E80085FD22C0A0
:1039D0008091E8008E778093E80001151105A1F031
:1039E000F80180819181A80EB91EB182A08285E084
:1039F000F82E8F2DDF91CF911F910F91FF90DF90C7
:103A0000CF90BF90AF9008950E941C1E8823D1F2E2
:103A1000F82EEFCFF60181916F018093F10021978D
:103A2000FFEFAF1ABF0ACECFFC01CB0120911602E7
:103A3000309117022617370790F0009729F420914C
:103A4000E8002E772093E80040E0009751F4411100
:103A500008C08091E80082FF31C080E00895C9016C
:103A6000F3CF20910F022223A9F12530A9F1209153
:103A7000E80023FD2DC02091E80022FDEACF20912F
:103A8000E80020FFE2CF3091F3002091F200009790
:103A900019F02830310558F041E02830310509F09F
:103AA00040E02091E8002E772093E800CECF4191AE
:103AB0004093F10001972F5F3F4FE9CF80910F02B4
:103AC000882341F0853041F08091E80083FFC1CF29
:103AD00081E0089582E0089583E00895FC01CB0120
:103AE00020911602309117022617370790F00097A1
:103AF00029F42091E8002E772093E80040E0009719
:103B000051F4411108C08091E80082FF32C080E08A
:103B10000895C901F3CF20910F022223B1F125307E
:103B2000B1F12091E80023FD2EC02091E80022FD94
:103B3000EACF2091E80020FFE2CF3091F3002091FE
:103B4000F200009719F02830310558F041E0283094
:103B5000310509F040E02091E8002E772093E8003D
:103B6000CECF44914093F100319601972F5F3F4FA4
:103B7000E8CF80910F02882341F0853041F0809199
:103B8000E80083FFC0CF81E0089582E0089583E0DC
:103B90000895982F973028F08F708093E90081E086
:103BA00008959093E900242F762F50E0981731F074
:103BB0007091EC002091ED005091F00021FD02C0C9
:103BC0009F5FE8CF3091EB003E7F3093EB00309168
:103BD000ED003D7F3093ED003091EB00316030938C
:103BE000EB007093EC002093ED005093F0002091D7
:103BF000EE0027FDE5CF80E008958091100287FF59
:103C000013C08091E80082FF06C08091E8008B77A6
:103C10008093E80004C080910F028111F2CF0895D3
:103C200080910F028823D9F38091E80080FFF8CFBC
:103C30008091E8008E77ECCF2091E4003091E50090
:103C400095E6A9012091EC00822F817020FF06C02B
:103C50008091E80080FF06C080E008952091E80090
:103C600022FD1AC080910F02882389F0853089F0E7
:103C70008091EB0085FD0FC02091E4003091E500BC
:103C800042175307F9F29150E1F684E0089582E07B
:103C9000089583E0089581E008950E94BB1E0E946C
:103CA000C31EE0EEF0E0808181608083E8EDF0E00B
:103CB00080818F77808319BCA7EDB0E08C918E7FD7
:103CC0008C9380818F7E808310920E0208950F93D3
:103CD0001F93CF93DF930E94BB1E0E94C31EC8EDAB
:103CE000D0E088818F778883888180688883888105
:103CF0008F7D888319BC10920F0210920B021092D4
:103D00000D0210920C0200EE10E0F80180818B7F12
:103D1000808388818160888342E060E080E00E9447
:103D2000C91DE1EEF0E080818E7F8083E2EEF0E05D
:103D3000808181608083808188608083F8018081B8
:103D40008E7F8083888180618883DF91CF911F91EE
:103D50000F910895E8EDF0E080818F7E8083E7ED9C
:103D6000F0E080818160808384E082BF81E0809385
:103D70000E020C94671EE8EDF0E080818E7F808358
:103D80001092E20008951092DA001092E100089576
:103D90001F920F920FB60F9211242F933F934F93C0
:103DA0005F936F937F938F939F93AF93BF93EF93A3
:103DB000FF938091E10082FF0BC08091E20082FFBF
:103DC00007C08091E1008B7F8093E1000E94292150
:103DD0008091DA0080FF19C08091D80080FF15C063
:103DE0008091DA008E7F8093DA008091D90080FF85
:103DF00094C080E189BD82E189BD09B400FEFDCF98
:103E000081E080930F020E94481B8091E10080FFB7
:103E100019C08091E20080FF15C08091E2008E7F82
:103E20008093E2008091E20080618093E2008091C3
:103E3000D80080628093D80019BC85E080930F027F
:103E40000E945A1B8091E10084FF29C08091E2000A
:103E500084FF25C080E189BD82E189BD09B400FEEF
:103E6000FDCF8091D8008F7D8093D8008091E100B4
:103E70008F7E8093E1008091E2008F7E8093E2004C
:103E80008091E20081608093E20080910B028823A0
:103E900009F449C084E080930F020E945B1B80916B
:103EA000E10083FF29C08091E20083FF25C080915B
:103EB000E100877F8093E10082E080930F021092FF
:103EC0000B028091E1008E7F8093E1008091E200FF
:103ED0008E7F8093E2008091E20080618093E20017
:103EE00042E060E080E00E94C91D8091F00088609F
:103EF0008093F0000E94591BFF91EF91BF91AF9109
:103F00009F918F917F916F915F914F913F912F91F1
:103F10000F900FBE0F901F90189519BC10920F02B2
:103F20000E94561B72CF8091E30087FD02C081E0A2
:103F3000B2CF83E0B0CF1F920F920FB60F92112431
:103F40002F933F934F935F936F937F938F939F93A1
:103F5000AF93BF93CF93DF93EF93FF93D091E9009B
:103F6000DF708091EC00C82FC17080FDC0E8109216
:103F7000E9008091F000877F8093F00078940E94A0
:103F8000DF1F1092E9008091F00088608093F000BC
:103F9000CD2BCF70C093E900FF91EF91DF91CF91CE
:103FA000BF91AF919F918F917F916F915F914F9151
:103FB0003F912F910F900FBE0F901F9018951F9358
:103FC000CF93DF93CDB7DEB7AA970FB6F894DEBFD5
:103FD0000FBECDBF80E192E0FC0101962091F1007F
:103FE000208322E088319207B9F70E94711B8091EB
:103FF000E80083FF16C180911002909111029A305F
:1040000008F00FC1E92FF0E0E250FD4D0C948A2238
:10401000803881F0823809F004C1809114028F70D9
:104020008093E9008091EB0085FB882780F910924E
:10403000E90006C080910C0290910D0291118260FE
:104040009091E800977F9093E8008093F1001092A0
:10405000F1008091E8008E77E0C0882309F4CEC09B
:10406000823009F0DEC0809112028111D1C08091AE
:1040700014028F7009F4D5C08093E9002091EB0001
:1040800020FFC6C0933031F48091EB0080628093B2
:10409000EB00BEC09091EB0090619093EB0021E0AB
:1040A00030E001C0220F8A95EAF72093EA001092CF
:1040B000EA008091EB008860EACF8111B2C01091D4
:1040C00012021F778091E3008078812B8093E300B8
:1040D0008091E800877F8093E8000E94FD1D809119
:1040E000E80080FFFCCF8091E30080688093E300CC
:1040F00082E0111183E080930F0293C080588230D8
:1041000008F08FC080911202909113028C3D23E041
:104110009207A1F583E08A838AE289834FB7F894F6
:10412000DE01139620E03EE051E2E32FF0E05093F1
:104130005700E49120FF03C0E295EF703F5FEF70FE
:104140008E2F90E0EA30C0F0C7968D939D932F5F3D
:10415000243159F74FBF8091E800877F8093E800B2
:104160006AE270E0CE0101960E94141D8091E80081
:104170008B778093E80055C0C096E7CFAE014F5FC4
:104180005F4F609114020E94591CBC01892B09F4F5
:1041900048C08091E800877F8093E80089819A81F8
:1041A0000E946E1DE3CF8038E1F58091E800877FA3
:1041B0008093E80080910B028093F1004ACF811137
:1041C00030C090911202923060F58091E800877FB4
:1041D0008093E80090930B020E94FD1D80910B02DA
:1041E000882311F084E005C08091E30087FDFACFB9
:1041F00081E080930F020E945D1B13C08091120228
:10420000813079F481E0933009F080E080930D02F1
:104210001092E9008091E800877F8093E8000E9477
:10422000FD1D8091E80083FF0AC08091E800877F30
:104230008093E8008091EB0080628093EB00AA9667
:104240000FB6F894DEBF0FBECDBFDF91CF911F91A7
:1042500008950895CF9380910F028823A1F0C09113
:10426000E900CF709091EC00892F817090FD80E87B
:10427000C82B1092E9008091E80083FD0E94DF1FA7
:10428000CF70C093E900CF9108950E944C216894AB
:10429000B1110C94DB2108950E94C02188F09F5732
:1042A00098F0B92F9927B751B0F0E1F0660F771F5A
:1042B000881F991F1AF0BA95C9F714C0B13091F050
:1042C0000E94DA21B1E008950C94DA21672F782F4B
:1042D0008827B85F39F0B93FCCF386957795679515
:1042E000B395D9F73EF490958095709561957F4F81
:1042F0008F4F9F4F0895E89409C097FB3EF4909527
:104300008095709561957F4F8F4F9F4F9923A9F0AE
:10431000F92F96E9BB279395F6958795779567953D
:10432000B795F111F8CFFAF4BB0F11F460FF1BC081
:104330006F5F7F4F8F4F9F4F16C0882311F096E914
:1043400011C0772321F09EE8872F762F05C06623C2
:1043500071F096E8862F70E060E02AF09A95660F7B
:10436000771F881FDAF7880F9695879597F9089534
:1043700057FD9058440F551F59F05F3F71F0479516
:10438000880F97FB991F61F09F3F79F087950895FB
:10439000121613061406551FF2CF4695F1DF08C01A
:1043A000161617061806991FF1CF86957105610537
:1043B00008940895E894BB2766277727CB0197F9DF
:1043C00008950E94F4210C9465220E94572238F02F
:1043D0000E945E2220F0952311F00C944E220C9442
:1043E000542211240C94DB210E94B82170F3959F74
:1043F000C1F3950F50E0551F629FF001729FBB27DC
:10440000F00DB11D639FAA27F00DB11DAA1F649F77
:104410006627B00DA11D661F829F2227B00DA11D2A
:10442000621F739FB00DA11D621F839FA00D611DB0
:10443000221F749F3327A00D611D231F849F600DD1
:10444000211D822F762F6A2F11249F5750409AF0FA
:10445000F1F088234AF0EE0FFF1FBB1F661F771F86
:10446000881F91505040A9F79E3F510580F00C9451
:104470004E220C94DB215F3FE4F3983ED4F3869503
:1044800077956795B795F795E7959F5FC1F7FE2BF1
:10449000880F911D9695879597F9089597F99F67CD
:1044A00080E870E060E008959FEF80EC08950024BC
:1044B0000A941616170618060906089500240A9489
:1044C00012161306140605060895092E0394000C0F
:1044D00011F4882352F0BB0F40F4BF2B11F460FF9E
:1044E00004C06F5F7F4F8F4F9F4F089597FB072E3C
:1044F00016F4009407D077FD09D00E94902207FCA3
:1045000005D03EF4909581959F4F089570956195E3
:104510007F4F0895EE0FFF1F0590F491E02D099451
:10452000AA1BBB1B51E107C0AA1FBB1FA617B707D9
:1045300010F0A61BB70B881F991F5A95A9F78095F5
:104540009095BC01CD010895F999FECF92BD81BD32
:10455000F89A992780B50895A8E1B0E042E050E0CC
:104560000C94CC22262FF999FECF92BD81BDF89AEA
:10457000019700B4021639F01FBA20BD0FB6F894A7
:10458000FA9AF99A0FBE08950196272F0E94B32236
:104590000C94B222DC01CB01FC01F999FECF06C0DC
:1045A000F2BDE1BDF89A319600B40D9241505040F1
:1045B000B8F70895F894FFCF340440044404480445
:1045C0004C045004540458045C04600464046804FB
:1045D0006C047004740478047C048004210B210BA7
:1045E000790B790BBD0BD90B510B510BE40B510B14
:1045F000AC0CAC0C170D200D510B400D08202D20DC
:1046000011212D2011215D207E201121D320DF20BA
:10461000B4012808140A321E651AF51AD21A9B1A18
:10462000681A0134C697669490F731333236404D9C
:104630003639FA05AD0577053E05D104EA040305D0
:024640001C0557
:00000001FF
